{
  "abi": [
    {
      "type": "constructor",
      "inputs": [
        {
          "name": "_erc20TransferHelper",
          "type": "address",
          "internalType": "address"
        },
        {
          "name": "_erc721TransferHelper",
          "type": "address",
          "internalType": "address"
        },
        {
          "name": "_royaltyEngine",
          "type": "address",
          "internalType": "address"
        },
        {
          "name": "_protocolFeeSettings",
          "type": "address",
          "internalType": "address"
        },
        {
          "name": "_wethAddress",
          "type": "address",
          "internalType": "address"
        }
      ],
      "stateMutability": "nonpayable"
    },
    {
      "type": "function",
      "name": "_handleRoyaltyEnginePayout",
      "inputs": [
        {
          "name": "_tokenContract",
          "type": "address",
          "internalType": "address"
        },
        {
          "name": "_tokenId",
          "type": "uint256",
          "internalType": "uint256"
        },
        {
          "name": "_amount",
          "type": "uint256",
          "internalType": "uint256"
        },
        {
          "name": "_payoutCurrency",
          "type": "address",
          "internalType": "address"
        }
      ],
      "outputs": [
        {
          "name": "",
          "type": "uint256",
          "internalType": "uint256"
        }
      ],
      "stateMutability": "payable"
    },
    {
      "type": "function",
      "name": "aggregate",
      "inputs": [
        {
          "name": "calls",
          "type": "tuple[]",
          "internalType": "struct Multicall.Call[]",
          "components": [
            {
              "name": "allowFailure",
              "type": "bool",
              "internalType": "bool"
            },
            {
              "name": "callData",
              "type": "bytes",
              "internalType": "bytes"
            }
          ]
        }
      ],
      "outputs": [
        {
          "name": "returnData",
          "type": "tuple[]",
          "internalType": "struct Multicall.Result[]",
          "components": [
            {
              "name": "success",
              "type": "bool",
              "internalType": "bool"
            },
            {
              "name": "returnData",
              "type": "bytes",
              "internalType": "bytes"
            }
          ]
        }
      ],
      "stateMutability": "payable"
    },
    {
      "type": "function",
      "name": "askForNFT",
      "inputs": [
        {
          "name": "",
          "type": "address",
          "internalType": "address"
        },
        {
          "name": "",
          "type": "uint256",
          "internalType": "uint256"
        }
      ],
      "outputs": [
        {
          "name": "seller",
          "type": "address",
          "internalType": "address"
        },
        {
          "name": "sellerFundsRecipient",
          "type": "address",
          "internalType": "address"
        },
        {
          "name": "askCurrency",
          "type": "address",
          "internalType": "address"
        },
        {
          "name": "findersFeeBps",
          "type": "uint16",
          "internalType": "uint16"
        },
        {
          "name": "askPrice",
          "type": "uint256",
          "internalType": "uint256"
        }
      ],
      "stateMutability": "view"
    },
    {
      "type": "function",
      "name": "cancelAsk",
      "inputs": [
        {
          "name": "_tokenContract",
          "type": "address",
          "internalType": "address"
        },
        {
          "name": "_tokenId",
          "type": "uint256",
          "internalType": "uint256"
        }
      ],
      "outputs": [],
      "stateMutability": "nonpayable"
    },
    {
      "type": "function",
      "name": "createAsk",
      "inputs": [
        {
          "name": "_tokenContract",
          "type": "address",
          "internalType": "address"
        },
        {
          "name": "_tokenId",
          "type": "uint256",
          "internalType": "uint256"
        },
        {
          "name": "_askPrice",
          "type": "uint256",
          "internalType": "uint256"
        },
        {
          "name": "_askCurrency",
          "type": "address",
          "internalType": "address"
        },
        {
          "name": "_sellerFundsRecipient",
          "type": "address",
          "internalType": "address"
        },
        {
          "name": "_findersFeeBps",
          "type": "uint16",
          "internalType": "uint16"
        }
      ],
      "outputs": [],
      "stateMutability": "nonpayable"
    },
    {
      "type": "function",
      "name": "erc20TransferHelper",
      "inputs": [],
      "outputs": [
        {
          "name": "",
          "type": "address",
          "internalType": "contract ERC20TransferHelper"
        }
      ],
      "stateMutability": "view"
    },
    {
      "type": "function",
      "name": "erc721TransferHelper",
      "inputs": [],
      "outputs": [
        {
          "name": "",
          "type": "address",
          "internalType": "contract ERC721TransferHelper"
        }
      ],
      "stateMutability": "view"
    },
    {
      "type": "function",
      "name": "fillAsk",
      "inputs": [
        {
          "name": "_tokenContract",
          "type": "address",
          "internalType": "address"
        },
        {
          "name": "_tokenId",
          "type": "uint256",
          "internalType": "uint256"
        },
        {
          "name": "_fillCurrency",
          "type": "address",
          "internalType": "address"
        },
        {
          "name": "_fillAmount",
          "type": "uint256",
          "internalType": "uint256"
        },
        {
          "name": "_finder",
          "type": "address",
          "internalType": "address"
        }
      ],
      "outputs": [],
      "stateMutability": "payable"
    },
    {
      "type": "function",
      "name": "name",
      "inputs": [],
      "outputs": [
        {
          "name": "",
          "type": "string",
          "internalType": "string"
        }
      ],
      "stateMutability": "view"
    },
    {
      "type": "function",
      "name": "registrar",
      "inputs": [],
      "outputs": [
        {
          "name": "",
          "type": "address",
          "internalType": "address"
        }
      ],
      "stateMutability": "view"
    },
    {
      "type": "function",
      "name": "setAskPrice",
      "inputs": [
        {
          "name": "_tokenContract",
          "type": "address",
          "internalType": "address"
        },
        {
          "name": "_tokenId",
          "type": "uint256",
          "internalType": "uint256"
        },
        {
          "name": "_askPrice",
          "type": "uint256",
          "internalType": "uint256"
        },
        {
          "name": "_askCurrency",
          "type": "address",
          "internalType": "address"
        }
      ],
      "outputs": [],
      "stateMutability": "nonpayable"
    },
    {
      "type": "function",
      "name": "setRoyaltyEngineAddress",
      "inputs": [
        {
          "name": "_royaltyEngine",
          "type": "address",
          "internalType": "address"
        }
      ],
      "outputs": [],
      "stateMutability": "nonpayable"
    },
    {
      "type": "event",
      "name": "AskCanceled",
      "inputs": [
        {
          "name": "tokenContract",
          "type": "address",
          "indexed": true,
          "internalType": "address"
        },
        {
          "name": "tokenId",
          "type": "uint256",
          "indexed": true,
          "internalType": "uint256"
        },
        {
          "name": "ask",
          "type": "tuple",
          "indexed": false,
          "internalType": "struct AsksV1_1.Ask",
          "components": [
            {
              "name": "seller",
              "type": "address",
              "internalType": "address"
            },
            {
              "name": "sellerFundsRecipient",
              "type": "address",
              "internalType": "address"
            },
            {
              "name": "askCurrency",
              "type": "address",
              "internalType": "address"
            },
            {
              "name": "findersFeeBps",
              "type": "uint16",
              "internalType": "uint16"
            },
            {
              "name": "askPrice",
              "type": "uint256",
              "internalType": "uint256"
            }
          ]
        }
      ],
      "anonymous": false
    },
    {
      "type": "event",
      "name": "AskCreated",
      "inputs": [
        {
          "name": "tokenContract",
          "type": "address",
          "indexed": true,
          "internalType": "address"
        },
        {
          "name": "tokenId",
          "type": "uint256",
          "indexed": true,
          "internalType": "uint256"
        },
        {
          "name": "ask",
          "type": "tuple",
          "indexed": false,
          "internalType": "struct AsksV1_1.Ask",
          "components": [
            {
              "name": "seller",
              "type": "address",
              "internalType": "address"
            },
            {
              "name": "sellerFundsRecipient",
              "type": "address",
              "internalType": "address"
            },
            {
              "name": "askCurrency",
              "type": "address",
              "internalType": "address"
            },
            {
              "name": "findersFeeBps",
              "type": "uint16",
              "internalType": "uint16"
            },
            {
              "name": "askPrice",
              "type": "uint256",
              "internalType": "uint256"
            }
          ]
        }
      ],
      "anonymous": false
    },
    {
      "type": "event",
      "name": "AskFilled",
      "inputs": [
        {
          "name": "tokenContract",
          "type": "address",
          "indexed": true,
          "internalType": "address"
        },
        {
          "name": "tokenId",
          "type": "uint256",
          "indexed": true,
          "internalType": "uint256"
        },
        {
          "name": "buyer",
          "type": "address",
          "indexed": true,
          "internalType": "address"
        },
        {
          "name": "finder",
          "type": "address",
          "indexed": false,
          "internalType": "address"
        },
        {
          "name": "ask",
          "type": "tuple",
          "indexed": false,
          "internalType": "struct AsksV1_1.Ask",
          "components": [
            {
              "name": "seller",
              "type": "address",
              "internalType": "address"
            },
            {
              "name": "sellerFundsRecipient",
              "type": "address",
              "internalType": "address"
            },
            {
              "name": "askCurrency",
              "type": "address",
              "internalType": "address"
            },
            {
              "name": "findersFeeBps",
              "type": "uint16",
              "internalType": "uint16"
            },
            {
              "name": "askPrice",
              "type": "uint256",
              "internalType": "uint256"
            }
          ]
        }
      ],
      "anonymous": false
    },
    {
      "type": "event",
      "name": "AskPriceUpdated",
      "inputs": [
        {
          "name": "tokenContract",
          "type": "address",
          "indexed": true,
          "internalType": "address"
        },
        {
          "name": "tokenId",
          "type": "uint256",
          "indexed": true,
          "internalType": "uint256"
        },
        {
          "name": "ask",
          "type": "tuple",
          "indexed": false,
          "internalType": "struct AsksV1_1.Ask",
          "components": [
            {
              "name": "seller",
              "type": "address",
              "internalType": "address"
            },
            {
              "name": "sellerFundsRecipient",
              "type": "address",
              "internalType": "address"
            },
            {
              "name": "askCurrency",
              "type": "address",
              "internalType": "address"
            },
            {
              "name": "findersFeeBps",
              "type": "uint16",
              "internalType": "uint16"
            },
            {
              "name": "askPrice",
              "type": "uint256",
              "internalType": "uint256"
            }
          ]
        }
      ],
      "anonymous": false
    },
    {
      "type": "event",
      "name": "ExchangeExecuted",
      "inputs": [
        {
          "name": "userA",
          "type": "address",
          "indexed": true,
          "internalType": "address"
        },
        {
          "name": "userB",
          "type": "address",
          "indexed": true,
          "internalType": "address"
        },
        {
          "name": "a",
          "type": "tuple",
          "indexed": false,
          "internalType": "struct UniversalExchangeEventV1.ExchangeDetails",
          "components": [
            {
              "name": "tokenContract",
              "type": "address",
              "internalType": "address"
            },
            {
              "name": "tokenId",
              "type": "uint256",
              "internalType": "uint256"
            },
            {
              "name": "amount",
              "type": "uint256",
              "internalType": "uint256"
            }
          ]
        },
        {
          "name": "b",
          "type": "tuple",
          "indexed": false,
          "internalType": "struct UniversalExchangeEventV1.ExchangeDetails",
          "components": [
            {
              "name": "tokenContract",
              "type": "address",
              "internalType": "address"
            },
            {
              "name": "tokenId",
              "type": "uint256",
              "internalType": "uint256"
            },
            {
              "name": "amount",
              "type": "uint256",
              "internalType": "uint256"
            }
          ]
        }
      ],
      "anonymous": false
    },
    {
      "type": "event",
      "name": "RoyaltyPayout",
      "inputs": [
        {
          "name": "tokenContract",
          "type": "address",
          "indexed": true,
          "internalType": "address"
        },
        {
          "name": "tokenId",
          "type": "uint256",
          "indexed": true,
          "internalType": "uint256"
        },
        {
          "name": "recipient",
          "type": "address",
          "indexed": false,
          "internalType": "address"
        },
        {
          "name": "amount",
          "type": "uint256",
          "indexed": false,
          "internalType": "uint256"
        }
      ],
      "anonymous": false
    }
  ],
  "bytecode": {
    "object": "0x610120604052600160005560016003553480156200001c57600080fd5b5060405162003880380380620038808339810160408190526200003f9162000253565b6040518060400160405280600a81526020016941736b733a2076312e3160b01b8152508383866001600160a01b031663e3e606f06040518163ffffffff1660e01b8152600401602060405180830381865afa158015620000a3573d6000803e3d6000fd5b505050506040513d601f19601f82011682018060405250810190620000c99190620002d3565b6001600160a01b0316632b20e3976040518163ffffffff1660e01b8152600401602060405180830381865afa15801562000107573d6000803e3d6000fd5b505050506040513d601f19601f820116820180604052508101906200012d9190620002d3565b6001600160a01b0389811660805285811660a052600180546001600160a01b0319169482169490941790935590821660e0521660c05280516200017890600290602084019062000194565b5050506001600160a01b03909216610100525062000337915050565b828054620001a290620002fa565b90600052602060002090601f016020900481019282620001c6576000855562000211565b82601f10620001e157805160ff191683800117855562000211565b8280016001018555821562000211579182015b8281111562000211578251825591602001919060010190620001f4565b506200021f92915062000223565b5090565b5b808211156200021f576000815560010162000224565b6001600160a01b03811681146200025057600080fd5b50565b600080600080600060a086880312156200026c57600080fd5b855162000279816200023a565b60208701519095506200028c816200023a565b60408701519094506200029f816200023a565b6060870151909350620002b2816200023a565b6080870151909250620002c5816200023a565b809150509295509295909350565b600060208284031215620002e657600080fd5b8151620002f3816200023a565b9392505050565b600181811c908216806200030f57607f821691505b602082108114156200033157634e487b7160e01b600052602260045260246000fd5b50919050565b60805160a05160c05160e051610100516134d3620003ad6000396000818161033c01528181610ad7015281816111ef015261133f01526000818161236f015261241b01526000818161010901526119e501526000818161261f01526126b7015260008181610267015261206401526134d36000f3fe6080604052600436106100c75760003560e01c80639128c22c11610074578063b249bb301161004e578063b249bb30146102ea578063c14341281461030a578063f7cd1d9b1461032a57600080fd5b80639128c22c146102895780639e847108146102aa578063b2007533146102ca57600080fd5b8063418f0656116100a5578063418f065614610172578063622dcbd7146102425780638f9d32511461025557600080fd5b806306fdde03146100cc5780632b20e397146100f757806340b8074614610150575b600080fd5b3480156100d857600080fd5b506100e161035e565b6040516100ee9190612c49565b60405180910390f35b34801561010357600080fd5b5061012b7f000000000000000000000000000000000000000000000000000000000000000081565b60405173ffffffffffffffffffffffffffffffffffffffff90911681526020016100ee565b34801561015c57600080fd5b5061017061016b366004612c81565b6103ec565b005b34801561017e57600080fd5b506101f861018d366004612c81565b6004602090815260009283526040808420909152908252902080546001820154600283015460039093015473ffffffffffffffffffffffffffffffffffffffff928316939183169282169174010000000000000000000000000000000000000000900461ffff169085565b6040805173ffffffffffffffffffffffffffffffffffffffff96871681529486166020860152929094169183019190915261ffff166060820152608081019190915260a0016100ee565b610170610250366004612cad565b6106e4565b34801561026157600080fd5b5061012b7f000000000000000000000000000000000000000000000000000000000000000081565b61029c610297366004612d0c565b610cd7565b6040519081526020016100ee565b3480156102b657600080fd5b506101706102c5366004612d66565b610f7c565b3480156102d657600080fd5b506101706102e5366004612d0c565b611827565b3480156102f657600080fd5b50610170610305366004612dd6565b6119cd565b61031d610318366004612df3565b611b8f565b6040516100ee9190612e68565b34801561033657600080fd5b5061012b7f000000000000000000000000000000000000000000000000000000000000000081565b6002805461036b90612efc565b80601f016020809104026020016040519081016040528092919081815260200182805461039790612efc565b80156103e45780601f106103b9576101008083540402835291602001916103e4565b820191906000526020600020905b8154815290600101906020018083116103c757829003601f168201915b505050505081565b60005460011461045d576040517f08c379a000000000000000000000000000000000000000000000000000000000815260206004820152600a60248201527f5245454e5452414e43590000000000000000000000000000000000000000000060448201526064015b60405180910390fd5b6002600090815573ffffffffffffffffffffffffffffffffffffffff838116825260046020908152604080842085855290915290912054166104fb576040517f08c379a000000000000000000000000000000000000000000000000000000000815260206004820152601b60248201527f63616e63656c41736b2061736b20646f65736e277420657869737400000000006044820152606401610454565b6040517f6352211e0000000000000000000000000000000000000000000000000000000081526004810182905260009073ffffffffffffffffffffffffffffffffffffffff841690636352211e90602401602060405180830381865afa158015610569573d6000803e3d6000fd5b505050506040513d601f19601f8201168201806040525081019061058d9190612f50565b90503373ffffffffffffffffffffffffffffffffffffffff8216148061064457506040517fe985e9c500000000000000000000000000000000000000000000000000000000815273ffffffffffffffffffffffffffffffffffffffff828116600483015233602483015284169063e985e9c590604401602060405180830381865afa158015610620573d6000803e3d6000fd5b505050506040513d601f19601f820116820180604052508101906106449190612f6d565b6106d0576040517f08c379a000000000000000000000000000000000000000000000000000000000815260206004820152602960248201527f63616e63656c41736b206d75737420626520746f6b656e206f776e6572206f7260448201527f206f70657261746f7200000000000000000000000000000000000000000000006064820152608401610454565b6106da8383611da1565b5050600160005550565b600054600114610750576040517f08c379a000000000000000000000000000000000000000000000000000000000815260206004820152600a60248201527f5245454e5452414e4359000000000000000000000000000000000000000000006044820152606401610454565b6002600090815573ffffffffffffffffffffffffffffffffffffffff808716825260046020908152604080842088855290915290912080549091166107f1576040517f08c379a000000000000000000000000000000000000000000000000000000000815260206004820152601a60248201527f66696c6c41736b206d757374206265206163746976652061736b0000000000006044820152606401610454565b600281015473ffffffffffffffffffffffffffffffffffffffff85811691161461089d576040517f08c379a000000000000000000000000000000000000000000000000000000000815260206004820152602d60248201527f66696c6c41736b205f66696c6c43757272656e6379206d757374206d6174636860448201527f2061736b2063757272656e6379000000000000000000000000000000000000006064820152608401610454565b82816003015414610930576040517f08c379a000000000000000000000000000000000000000000000000000000000815260206004820152602960248201527f66696c6c41736b205f66696c6c416d6f756e74206d757374206d61746368206160448201527f736b20616d6f756e7400000000000000000000000000000000000000000000006064820152608401610454565b6003810154600282015461095a919073ffffffffffffffffffffffffffffffffffffffff16611ea1565b6003810154600282015460009161098b918991899173ffffffffffffffffffffffffffffffffffffffff168561221a565b5060028301549091506109b590829073ffffffffffffffffffffffffffffffffffffffff16612320565b905073ffffffffffffffffffffffffffffffffffffffff831615610a4a57600282015460009061271090610a059074010000000000000000000000000000000000000000900461ffff1684612fbe565b610a0f9190612ffb565b6002840154909150610a3c908590839073ffffffffffffffffffffffffffffffffffffffff1660006124c0565b610a468183613036565b9150505b60018201546002830154610a7b9173ffffffffffffffffffffffffffffffffffffffff9081169184911660006124c0565b81546040517f15dacbea00000000000000000000000000000000000000000000000000000000815273ffffffffffffffffffffffffffffffffffffffff89811660048301529182166024820152336044820152606481018890527f0000000000000000000000000000000000000000000000000000000000000000909116906315dacbea90608401600060405180830381600087803b158015610b1d57600080fd5b505af1158015610b31573d6000803e3d6000fd5b5050604080516060808201835273ffffffffffffffffffffffffffffffffffffffff808d16835260208084018d90526001848601528451928301855260028901548216835260009083015260038801548285015287549351929550909350339216907f1f432c9454edd444f55492be01e3fa82aa88bfa28e120a039be204253c10c36e90610bc2908690869061304d565b60405180910390a33373ffffffffffffffffffffffffffffffffffffffff16888a73ffffffffffffffffffffffffffffffffffffffff167f21a9d8e221211780696258a05c6225b1a24f428e2fd4d51708f1ab2be4224d398888604051610c2a9291906130b5565b60405180910390a450505073ffffffffffffffffffffffffffffffffffffffff909516600090815260046020908152604080832096835295905293842080547fffffffffffffffffffffffff00000000000000000000000000000000000000009081168255600180830180549092169091556002820180547fffffffffffffffffffff00000000000000000000000000000000000000000000169055600390910185905590935550505050565b6000333014610d68576040517f08c379a000000000000000000000000000000000000000000000000000000000815260206004820152602d60248201527f5f68616e646c65526f79616c7479456e67696e655061796f7574206f6e6c792060448201527f73656c662063616c6c61626c65000000000000000000000000000000000000006064820152608401610454565b6001546040517ff533b80200000000000000000000000000000000000000000000000000000000815273ffffffffffffffffffffffffffffffffffffffff87811660048301526024820187905260448201869052600092839291169063f533b802906064016000604051808303816000875af1158015610dec573d6000803e3d6000fd5b505050506040513d6000823e601f3d9081017fffffffffffffffffffffffffffffffffffffffffffffffffffffffffffffffe0168201604052610e32919081019061321e565b8151919350915080610e4957859350505050610f74565b85600080805b84811015610f6a57868181518110610e6957610e696132e3565b60200260200101519250858181518110610e8557610e856132e3565b6020026020010151915081841015610ef9576040517f08c379a000000000000000000000000000000000000000000000000000000000815260206004820152600960248201527f696e736f6c76656e7400000000000000000000000000000000000000000000006044820152606401610454565b610f0783838b61c3506124c0565b6040805173ffffffffffffffffffffffffffffffffffffffff8581168252602082018590528d92908f16917f866e6ef8682ddf5f1025e64dfdb45527077f7be70fa9ef680b7ffd8cf4ab9c50910160405180910390a39281900392600101610e4f565b5091955050505050505b949350505050565b600054600114610fe8576040517f08c379a000000000000000000000000000000000000000000000000000000000815260206004820152600a60248201527f5245454e5452414e4359000000000000000000000000000000000000000000006044820152606401610454565b600260009081556040517f6352211e0000000000000000000000000000000000000000000000000000000081526004810187905273ffffffffffffffffffffffffffffffffffffffff881690636352211e90602401602060405180830381865afa15801561105a573d6000803e3d6000fd5b505050506040513d601f19601f8201168201806040525081019061107e9190612f50565b90503373ffffffffffffffffffffffffffffffffffffffff8216148061113557506040517fe985e9c500000000000000000000000000000000000000000000000000000000815273ffffffffffffffffffffffffffffffffffffffff828116600483015233602483015288169063e985e9c590604401602060405180830381865afa158015611111573d6000803e3d6000fd5b505050506040513d601f19601f820116820180604052508101906111359190612f6d565b6111c1576040517f08c379a000000000000000000000000000000000000000000000000000000000815260206004820152602960248201527f63726561746541736b206d75737420626520746f6b656e206f776e6572206f7260448201527f206f70657261746f7200000000000000000000000000000000000000000000006064820152608401610454565b6040517f72d276920000000000000000000000000000000000000000000000000000000081523360048201527f000000000000000000000000000000000000000000000000000000000000000073ffffffffffffffffffffffffffffffffffffffff16906372d2769290602401602060405180830381865afa15801561124b573d6000803e3d6000fd5b505050506040513d601f19601f8201168201806040525081019061126f9190612f6d565b6112fa576040517f08c379a0000000000000000000000000000000000000000000000000000000008152602060048201526024808201527f63726561746541736b206d75737420617070726f76652041736b735631206d6f60448201527f64756c65000000000000000000000000000000000000000000000000000000006064820152608401610454565b6040517fe985e9c500000000000000000000000000000000000000000000000000000000815273ffffffffffffffffffffffffffffffffffffffff82811660048301527f00000000000000000000000000000000000000000000000000000000000000008116602483015288169063e985e9c590604401602060405180830381865afa15801561138e573d6000803e3d6000fd5b505050506040513d601f19601f820116820180604052508101906113b29190612f6d565b61143e576040517f08c379a000000000000000000000000000000000000000000000000000000000815260206004820152603760248201527f63726561746541736b206d75737420617070726f76652045524337323154726160448201527f6e7366657248656c706572206173206f70657261746f720000000000000000006064820152608401610454565b6127108261ffff1611156114d4576040517f08c379a000000000000000000000000000000000000000000000000000000000815260206004820152603d60248201527f63726561746541736b2066696e646572732066656520627073206d757374206260448201527f65206c657373207468616e206f7220657175616c20746f2031303030300000006064820152608401610454565b73ffffffffffffffffffffffffffffffffffffffff8316611577576040517f08c379a000000000000000000000000000000000000000000000000000000000815260206004820152602c60248201527f63726561746541736b206d7573742073706563696679205f73656c6c6572467560448201527f6e6473526563697069656e7400000000000000000000000000000000000000006064820152608401610454565b73ffffffffffffffffffffffffffffffffffffffff87811660009081526004602090815260408083208a845290915290205416156115b9576115b98787611da1565b6040518060a001604052808273ffffffffffffffffffffffffffffffffffffffff1681526020018473ffffffffffffffffffffffffffffffffffffffff1681526020018573ffffffffffffffffffffffffffffffffffffffff1681526020018361ffff16815260200186815250600460008973ffffffffffffffffffffffffffffffffffffffff1673ffffffffffffffffffffffffffffffffffffffff168152602001908152602001600020600088815260200190815260200160002060008201518160000160006101000a81548173ffffffffffffffffffffffffffffffffffffffff021916908373ffffffffffffffffffffffffffffffffffffffff16021790555060208201518160010160006101000a81548173ffffffffffffffffffffffffffffffffffffffff021916908373ffffffffffffffffffffffffffffffffffffffff16021790555060408201518160020160006101000a81548173ffffffffffffffffffffffffffffffffffffffff021916908373ffffffffffffffffffffffffffffffffffffffff16021790555060608201518160020160146101000a81548161ffff021916908361ffff16021790555060808201518160030155905050858773ffffffffffffffffffffffffffffffffffffffff167f5b65b398e1d736436510f4da442eaec71466d2abee0816567088c892c4bcee70600460008b73ffffffffffffffffffffffffffffffffffffffff1673ffffffffffffffffffffffffffffffffffffffff16815260200190815260200160002060008a81526020019081526020016000206040516118119190613312565b60405180910390a3505060016000555050505050565b600054600114611893576040517f08c379a000000000000000000000000000000000000000000000000000000000815260206004820152600a60248201527f5245454e5452414e4359000000000000000000000000000000000000000000006044820152606401610454565b6002600090815573ffffffffffffffffffffffffffffffffffffffff808616825260046020908152604080842087855290915290912080549091163314611936576040517f08c379a000000000000000000000000000000000000000000000000000000000815260206004820152601a60248201527f73657441736b5072696365206d7573742062652073656c6c65720000000000006044820152606401610454565b600381018390556002810180547fffffffffffffffffffffffff00000000000000000000000000000000000000001673ffffffffffffffffffffffffffffffffffffffff8481169190911790915560405185918716907f1a24bcf5290feab70f35cfb4870c294ebf497e608d4262b0ec0debe045008140906119b9908590613312565b60405180910390a350506001600055505050565b3373ffffffffffffffffffffffffffffffffffffffff7f00000000000000000000000000000000000000000000000000000000000000001614611a92576040517f08c379a000000000000000000000000000000000000000000000000000000000815260206004820152602660248201527f736574526f79616c7479456e67696e6541646472657373206f6e6c792072656760448201527f69737472617200000000000000000000000000000000000000000000000000006064820152608401610454565b611abc817fcb23f81600000000000000000000000000000000000000000000000000000000612710565b611b48576040517f08c379a000000000000000000000000000000000000000000000000000000000815260206004820152603d60248201527f736574526f79616c7479456e67696e6541646472657373206d757374206d617460448201527f63682049526f79616c7479456e67696e65563120696e746572666163650000006064820152608401610454565b600180547fffffffffffffffffffffffff00000000000000000000000000000000000000001673ffffffffffffffffffffffffffffffffffffffff92909216919091179055565b6060600354600114611bfd576040517f08c379a000000000000000000000000000000000000000000000000000000000815260206004820152600a60248201527f5245454e5452414e4359000000000000000000000000000000000000000000006044820152606401610454565b6002600355818067ffffffffffffffff811115611c1c57611c1c613111565b604051908082528060200260200182016040528015611c6257816020015b604080518082019091526000815260606020820152815260200190600190039081611c3a5790505b5091503660005b82811015611d84576000848281518110611c8557611c856132e3565b60200260200101519050868683818110611ca157611ca16132e3565b9050602002810190611cb39190613366565b925030611cc360208501856133a4565b604051611cd1929190613410565b600060405180830381855af49150503d8060008114611d0c576040519150601f19603f3d011682016040523d82523d6000602084013e611d11565b606091505b5060208301521515808252833517611d7b577f08c379a000000000000000000000000000000000000000000000000000000000600052602060045260166024527f4d756c746963616c6c3a2063616c6c206661696c65640000000000000000000060445260646000fd5b50600101611c69565b50611d943347600061c3506124c0565b5050600160035592915050565b73ffffffffffffffffffffffffffffffffffffffff821660008181526004602090815260408083208584529091529081902090518392917f871956abf85befb7c955eacd40fcabe7e01b1702d75764bf7f54bf481933fd3591611e049190613312565b60405180910390a373ffffffffffffffffffffffffffffffffffffffff909116600090815260046020908152604080832093835292905290812080547fffffffffffffffffffffffff0000000000000000000000000000000000000000908116825560018201805490911690556002810180547fffffffffffffffffffff0000000000000000000000000000000000000000000016905560030155565b73ffffffffffffffffffffffffffffffffffffffff8116611f765781471015611f72576040517f08c379a000000000000000000000000000000000000000000000000000000000815260206004820152604260248201527f5f68616e646c65496e636f6d696e675472616e7366657220636f6e747261637460448201527f2062616c616e6365206c657373207468616e20657870656374656420616d6f7560648201527f6e74000000000000000000000000000000000000000000000000000000000000608482015260a401610454565b5050565b6040517f70a08231000000000000000000000000000000000000000000000000000000008152306004820152819060009073ffffffffffffffffffffffffffffffffffffffff8316906370a0823190602401602060405180830381865afa158015611fe5573d6000803e3d6000fd5b505050506040513d601f19601f820116820180604052508101906120099190613420565b6040517fd9fc4b6100000000000000000000000000000000000000000000000000000000815273ffffffffffffffffffffffffffffffffffffffff8581166004830152336024830152306044830152606482018790529192507f00000000000000000000000000000000000000000000000000000000000000009091169063d9fc4b6190608401600060405180830381600087803b1580156120aa57600080fd5b505af11580156120be573d6000803e3d6000fd5b50506040517f70a082310000000000000000000000000000000000000000000000000000000081523060048201526000925073ffffffffffffffffffffffffffffffffffffffff851691506370a0823190602401602060405180830381865afa15801561212f573d6000803e3d6000fd5b505050506040513d601f19601f820116820180604052508101906121539190613420565b9050806121608684613439565b14612213576040517f08c379a000000000000000000000000000000000000000000000000000000000815260206004820152604c60248201527f5f68616e646c65496e636f6d696e675472616e7366657220746f6b656e20747260448201527f616e736665722063616c6c20646964206e6f74207472616e736665722065787060648201527f656374656420616d6f756e740000000000000000000000000000000000000000608482015260a401610454565b5050505050565b6000808083158061222a57505a84115b6122345783612236565b5a5b6040517f9128c22c00000000000000000000000000000000000000000000000000000000815273ffffffffffffffffffffffffffffffffffffffff808b166004830152602482018a905260448201899052871660648201529091503090639128c22c90839060840160206040518083038160008887f1935050505080156122f8575060408051601f3d9081017fffffffffffffffffffffffffffffffffffffffffffffffffffffffffffffffe01682019092526122f591810190613420565b60015b612309578560009250925050612316565b9250600191506123169050565b9550959350505050565b6040517f61b485f600000000000000000000000000000000000000000000000000000000815230600482015260248101839052600090819073ffffffffffffffffffffffffffffffffffffffff7f000000000000000000000000000000000000000000000000000000000000000016906361b485f690604401602060405180830381865afa1580156123b6573d6000803e3d6000fd5b505050506040513d601f19601f820116820180604052508101906123da9190613420565b9050806123ea57839150506124ba565b6040517f86ab6fb90000000000000000000000000000000000000000000000000000000081523060048201526000907f000000000000000000000000000000000000000000000000000000000000000073ffffffffffffffffffffffffffffffffffffffff16906386ab6fb9906024016040805180830381865afa158015612476573d6000803e3d6000fd5b505050506040513d601f19601f8201168201806040525081019061249a9190613451565b9150506124ab81838661c3506124c0565b6124b58286613036565b925050505b92915050565b8215806124e1575073ffffffffffffffffffffffffffffffffffffffff8416155b156124eb5761270a565b73ffffffffffffffffffffffffffffffffffffffff82166126e95782471015612596576040517f08c379a000000000000000000000000000000000000000000000000000000000815260206004820152602160248201527f5f68616e646c654f7574676f696e675472616e7366657220696e736f6c76656e60448201527f74000000000000000000000000000000000000000000000000000000000000006064820152608401610454565b60008115806125a457505a82115b6125ae57816125b0565b5a5b905060008573ffffffffffffffffffffffffffffffffffffffff16858390604051600060405180830381858888f193505050503d806000811461260f576040519150601f19603f3d011682016040523d82523d6000602084013e612614565b606091505b50509050806126e2577f000000000000000000000000000000000000000000000000000000000000000073ffffffffffffffffffffffffffffffffffffffff1663d0e30db0866040518263ffffffff1660e01b81526004016000604051808303818588803b15801561268557600080fd5b505af1158015612699573d6000803e3d6000fd5b506126e293505073ffffffffffffffffffffffffffffffffffffffff7f000000000000000000000000000000000000000000000000000000000000000016915088905087612733565b505061270a565b61270a73ffffffffffffffffffffffffffffffffffffffff83168585612733565b50505050565b600061271b836127c5565b801561272c575061272c8383612829565b9392505050565b6040805173ffffffffffffffffffffffffffffffffffffffff8416602482015260448082018490528251808303909101815260649091019091526020810180517bffffffffffffffffffffffffffffffffffffffffffffffffffffffff167fa9059cbb000000000000000000000000000000000000000000000000000000001790526127c0908490612965565b505050565b60006127f1827f01ffc9a700000000000000000000000000000000000000000000000000000000612829565b80156124ba5750612822827fffffffff00000000000000000000000000000000000000000000000000000000612829565b1592915050565b604080517fffffffff00000000000000000000000000000000000000000000000000000000831660248083019190915282518083039091018152604490910182526020810180517bffffffffffffffffffffffffffffffffffffffffffffffffffffffff167f01ffc9a7000000000000000000000000000000000000000000000000000000001790529051600091908290819073ffffffffffffffffffffffffffffffffffffffff871690617530906128e390869061348b565b6000604051808303818686fa925050503d806000811461291f576040519150601f19603f3d011682016040523d82523d6000602084013e612924565b606091505b509150915060208151101561293f57600093505050506124ba565b81801561295b57508080602001905181019061295b9190612f6d565b9695505050505050565b60006129c7826040518060400160405280602081526020017f5361666545524332303a206c6f772d6c6576656c2063616c6c206661696c65648152508573ffffffffffffffffffffffffffffffffffffffff16612a719092919063ffffffff16565b8051909150156127c057808060200190518101906129e59190612f6d565b6127c0576040517f08c379a000000000000000000000000000000000000000000000000000000000815260206004820152602a60248201527f5361666545524332303a204552433230206f7065726174696f6e20646964206e60448201527f6f742073756363656564000000000000000000000000000000000000000000006064820152608401610454565b6060610f7484846000858573ffffffffffffffffffffffffffffffffffffffff85163b612afa576040517f08c379a000000000000000000000000000000000000000000000000000000000815260206004820152601d60248201527f416464726573733a2063616c6c20746f206e6f6e2d636f6e74726163740000006044820152606401610454565b6000808673ffffffffffffffffffffffffffffffffffffffff168587604051612b23919061348b565b60006040518083038185875af1925050503d8060008114612b60576040519150601f19603f3d011682016040523d82523d6000602084013e612b65565b606091505b5091509150612b75828286612b80565b979650505050505050565b60608315612b8f57508161272c565b825115612b9f5782518084602001fd5b816040517f08c379a00000000000000000000000000000000000000000000000000000000081526004016104549190612c49565b60005b83811015612bee578181015183820152602001612bd6565b8381111561270a5750506000910152565b60008151808452612c17816020860160208601612bd3565b601f017fffffffffffffffffffffffffffffffffffffffffffffffffffffffffffffffe0169290920160200192915050565b60208152600061272c6020830184612bff565b73ffffffffffffffffffffffffffffffffffffffff81168114612c7e57600080fd5b50565b60008060408385031215612c9457600080fd5b8235612c9f81612c5c565b946020939093013593505050565b600080600080600060a08688031215612cc557600080fd5b8535612cd081612c5c565b9450602086013593506040860135612ce781612c5c565b9250606086013591506080860135612cfe81612c5c565b809150509295509295909350565b60008060008060808587031215612d2257600080fd5b8435612d2d81612c5c565b935060208501359250604085013591506060850135612d4b81612c5c565b939692955090935050565b61ffff81168114612c7e57600080fd5b60008060008060008060c08789031215612d7f57600080fd5b8635612d8a81612c5c565b955060208701359450604087013593506060870135612da881612c5c565b92506080870135612db881612c5c565b915060a0870135612dc881612d56565b809150509295509295509295565b600060208284031215612de857600080fd5b813561272c81612c5c565b60008060208385031215612e0657600080fd5b823567ffffffffffffffff80821115612e1e57600080fd5b818501915085601f830112612e3257600080fd5b813581811115612e4157600080fd5b8660208260051b8501011115612e5657600080fd5b60209290920196919550909350505050565b60006020808301818452808551808352604092508286019150828160051b87010184880160005b83811015612eee578883037fffffffffffffffffffffffffffffffffffffffffffffffffffffffffffffffc00185528151805115158452870151878401879052612edb87850182612bff565b9588019593505090860190600101612e8f565b509098975050505050505050565b600181811c90821680612f1057607f821691505b60208210811415612f4a577f4e487b7100000000000000000000000000000000000000000000000000000000600052602260045260246000fd5b50919050565b600060208284031215612f6257600080fd5b815161272c81612c5c565b600060208284031215612f7f57600080fd5b8151801515811461272c57600080fd5b7f4e487b7100000000000000000000000000000000000000000000000000000000600052601160045260246000fd5b6000817fffffffffffffffffffffffffffffffffffffffffffffffffffffffffffffffff0483118215151615612ff657612ff6612f8f565b500290565b600082613031577f4e487b7100000000000000000000000000000000000000000000000000000000600052601260045260246000fd5b500490565b60008282101561304857613048612f8f565b500390565b825173ffffffffffffffffffffffffffffffffffffffff168152602080840151908201526040808401519082015260c08101825173ffffffffffffffffffffffffffffffffffffffff16606083015260208301516080830152604083015160a083015261272c565b73ffffffffffffffffffffffffffffffffffffffff83811682528254811660208301526001830154811660408301526002830154908116606083015261ffff60a091821c16608083015260038301549082015260c0810161272c565b7f4e487b7100000000000000000000000000000000000000000000000000000000600052604160045260246000fd5b604051601f82017fffffffffffffffffffffffffffffffffffffffffffffffffffffffffffffffe016810167ffffffffffffffff8111828210171561318757613187613111565b604052919050565b600067ffffffffffffffff8211156131a9576131a9613111565b5060051b60200190565b600082601f8301126131c457600080fd5b815160206131d96131d48361318f565b613140565b82815260059290921b840181019181810190868411156131f857600080fd5b8286015b8481101561321357805183529183019183016131fc565b509695505050505050565b6000806040838503121561323157600080fd5b825167ffffffffffffffff8082111561324957600080fd5b818501915085601f83011261325d57600080fd5b8151602061326d6131d48361318f565b82815260059290921b8401810191818101908984111561328c57600080fd5b948201945b838610156132b35785516132a481612c5c565b82529482019490820190613291565b918801519196509093505050808211156132cc57600080fd5b506132d9858286016131b3565b9150509250929050565b7f4e487b7100000000000000000000000000000000000000000000000000000000600052603260045260246000fd5b815473ffffffffffffffffffffffffffffffffffffffff90811682526001830154811660208301526002830154908116604083015261ffff60a091821c1660608301526003830154608083015281016124ba565b600082357fffffffffffffffffffffffffffffffffffffffffffffffffffffffffffffffc183360301811261339a57600080fd5b9190910192915050565b60008083357fffffffffffffffffffffffffffffffffffffffffffffffffffffffffffffffe18436030181126133d957600080fd5b83018035915067ffffffffffffffff8211156133f457600080fd5b60200191503681900382131561340957600080fd5b9250929050565b8183823760009101908152919050565b60006020828403121561343257600080fd5b5051919050565b6000821982111561344c5761344c612f8f565b500190565b6000806040838503121561346457600080fd5b825161346f81612d56565b602084015190925061348081612c5c565b809150509250929050565b6000825161339a818460208701612bd356fea2646970667358221220260feeeb13033e9f403f6c485ffa8bac6132e8affd0bdba32030a0a29bf5073e64736f6c634300080a0033",
    "linkReferences": {}
  },
  "methodIdentifiers": {
    "_handleRoyaltyEnginePayout(address,uint256,uint256,address)": "9128c22c",
    "aggregate((bool,bytes)[])": "c1434128",
    "askForNFT(address,uint256)": "418f0656",
    "cancelAsk(address,uint256)": "40b80746",
    "createAsk(address,uint256,uint256,address,address,uint16)": "9e847108",
    "erc20TransferHelper()": "8f9d3251",
    "erc721TransferHelper()": "f7cd1d9b",
    "fillAsk(address,uint256,address,uint256,address)": "622dcbd7",
    "name()": "06fdde03",
    "registrar()": "2b20e397",
    "setAskPrice(address,uint256,uint256,address)": "b2007533",
    "setRoyaltyEngineAddress(address)": "b249bb30"
  },
  "id": 10
}