{
  "abi": [
    {
      "type": "constructor",
      "inputs": [
        {
          "name": "_erc20TransferHelper",
          "type": "address",
          "internalType": "address"
        },
        {
          "name": "_erc721TransferHelper",
          "type": "address",
          "internalType": "address"
        },
        {
          "name": "_royaltyEngine",
          "type": "address",
          "internalType": "address"
        },
        {
          "name": "_protocolFeeSettings",
          "type": "address",
          "internalType": "address"
        },
        {
          "name": "_weth",
          "type": "address",
          "internalType": "address"
        }
      ],
      "stateMutability": "nonpayable"
    },
    {
      "type": "fallback",
      "stateMutability": "payable"
    },
    {
      "type": "function",
      "name": "_handleRoyaltyEnginePayout",
      "inputs": [
        {
          "name": "_tokenContract",
          "type": "address",
          "internalType": "address"
        },
        {
          "name": "_tokenId",
          "type": "uint256",
          "internalType": "uint256"
        },
        {
          "name": "_amount",
          "type": "uint256",
          "internalType": "uint256"
        },
        {
          "name": "_payoutCurrency",
          "type": "address",
          "internalType": "address"
        }
      ],
      "outputs": [
        {
          "name": "",
          "type": "uint256",
          "internalType": "uint256"
        }
      ],
      "stateMutability": "payable"
    },
    {
      "type": "function",
      "name": "cancelOffer",
      "inputs": [
        {
          "name": "_tokenContract",
          "type": "address",
          "internalType": "address"
        },
        {
          "name": "_tokenId",
          "type": "uint256",
          "internalType": "uint256"
        },
        {
          "name": "_offerId",
          "type": "uint256",
          "internalType": "uint256"
        }
      ],
      "outputs": [],
      "stateMutability": "nonpayable"
    },
    {
      "type": "function",
      "name": "createOffer",
      "inputs": [
        {
          "name": "_tokenContract",
          "type": "address",
          "internalType": "address"
        },
        {
          "name": "_tokenId",
          "type": "uint256",
          "internalType": "uint256"
        },
        {
          "name": "_offerCurrency",
          "type": "address",
          "internalType": "address"
        },
        {
          "name": "_offerAmount",
          "type": "uint256",
          "internalType": "uint256"
        },
        {
          "name": "_expiry",
          "type": "uint96",
          "internalType": "uint96"
        },
        {
          "name": "_findersFeeBps",
          "type": "uint16",
          "internalType": "uint16"
        },
        {
          "name": "_listingFeeBps",
          "type": "uint16",
          "internalType": "uint16"
        },
        {
          "name": "_listingFeeRecipient",
          "type": "address",
          "internalType": "address"
        }
      ],
      "outputs": [
        {
          "name": "",
          "type": "uint256",
          "internalType": "uint256"
        }
      ],
      "stateMutability": "payable"
    },
    {
      "type": "function",
      "name": "createOfferMinimal",
      "inputs": [
        {
          "name": "_tokenContract",
          "type": "address",
          "internalType": "address"
        },
        {
          "name": "_tokenId",
          "type": "uint256",
          "internalType": "uint256"
        }
      ],
      "outputs": [
        {
          "name": "",
          "type": "uint256",
          "internalType": "uint256"
        }
      ],
      "stateMutability": "payable"
    },
    {
      "type": "function",
      "name": "erc20TransferHelper",
      "inputs": [],
      "outputs": [
        {
          "name": "",
          "type": "address",
          "internalType": "contract ERC20TransferHelper"
        }
      ],
      "stateMutability": "view"
    },
    {
      "type": "function",
      "name": "erc721TransferHelper",
      "inputs": [],
      "outputs": [
        {
          "name": "",
          "type": "address",
          "internalType": "contract ERC721TransferHelper"
        }
      ],
      "stateMutability": "view"
    },
    {
      "type": "function",
      "name": "fillOffer",
      "inputs": [
        {
          "name": "_tokenContract",
          "type": "address",
          "internalType": "address"
        },
        {
          "name": "_tokenId",
          "type": "uint256",
          "internalType": "uint256"
        },
        {
          "name": "_offerId",
          "type": "uint256",
          "internalType": "uint256"
        },
        {
          "name": "_amount",
          "type": "uint256",
          "internalType": "uint256"
        },
        {
          "name": "_currency",
          "type": "address",
          "internalType": "address"
        },
        {
          "name": "_finder",
          "type": "address",
          "internalType": "address"
        }
      ],
      "outputs": [],
      "stateMutability": "nonpayable"
    },
    {
      "type": "function",
      "name": "getFullOffer",
      "inputs": [
        {
          "name": "_tokenContract",
          "type": "address",
          "internalType": "address"
        },
        {
          "name": "_tokenId",
          "type": "uint256",
          "internalType": "uint256"
        },
        {
          "name": "_offerId",
          "type": "uint256",
          "internalType": "uint256"
        }
      ],
      "outputs": [
        {
          "name": "",
          "type": "tuple",
          "internalType": "struct OffersDataStorage.FullOffer",
          "components": [
            {
              "name": "amount",
              "type": "uint256",
              "internalType": "uint256"
            },
            {
              "name": "maker",
              "type": "address",
              "internalType": "address"
            },
            {
              "name": "expiry",
              "type": "uint96",
              "internalType": "uint96"
            },
            {
              "name": "currency",
              "type": "address",
              "internalType": "address"
            },
            {
              "name": "findersFeeBps",
              "type": "uint16",
              "internalType": "uint16"
            },
            {
              "name": "listingFeeBps",
              "type": "uint16",
              "internalType": "uint16"
            },
            {
              "name": "listingFeeRecipient",
              "type": "address",
              "internalType": "address"
            }
          ]
        }
      ],
      "stateMutability": "view"
    },
    {
      "type": "function",
      "name": "name",
      "inputs": [],
      "outputs": [
        {
          "name": "",
          "type": "string",
          "internalType": "string"
        }
      ],
      "stateMutability": "view"
    },
    {
      "type": "function",
      "name": "offerCount",
      "inputs": [],
      "outputs": [
        {
          "name": "",
          "type": "uint256",
          "internalType": "uint256"
        }
      ],
      "stateMutability": "view"
    },
    {
      "type": "function",
      "name": "offers",
      "inputs": [
        {
          "name": "",
          "type": "address",
          "internalType": "address"
        },
        {
          "name": "",
          "type": "uint256",
          "internalType": "uint256"
        },
        {
          "name": "",
          "type": "uint256",
          "internalType": "uint256"
        }
      ],
      "outputs": [
        {
          "name": "amount",
          "type": "uint256",
          "internalType": "uint256"
        },
        {
          "name": "maker",
          "type": "address",
          "internalType": "address"
        },
        {
          "name": "features",
          "type": "uint32",
          "internalType": "uint32"
        }
      ],
      "stateMutability": "view"
    },
    {
      "type": "function",
      "name": "offersForNFT",
      "inputs": [
        {
          "name": "",
          "type": "address",
          "internalType": "address"
        },
        {
          "name": "",
          "type": "uint256",
          "internalType": "uint256"
        },
        {
          "name": "",
          "type": "uint256",
          "internalType": "uint256"
        }
      ],
      "outputs": [
        {
          "name": "",
          "type": "uint256",
          "internalType": "uint256"
        }
      ],
      "stateMutability": "view"
    },
    {
      "type": "function",
      "name": "registrar",
      "inputs": [],
      "outputs": [
        {
          "name": "",
          "type": "address",
          "internalType": "address"
        }
      ],
      "stateMutability": "view"
    },
    {
      "type": "function",
      "name": "setOfferAmount",
      "inputs": [
        {
          "name": "_tokenContract",
          "type": "address",
          "internalType": "address"
        },
        {
          "name": "_tokenId",
          "type": "uint256",
          "internalType": "uint256"
        },
        {
          "name": "_offerId",
          "type": "uint256",
          "internalType": "uint256"
        },
        {
          "name": "_offerCurrency",
          "type": "address",
          "internalType": "address"
        },
        {
          "name": "_offerAmount",
          "type": "uint256",
          "internalType": "uint256"
        }
      ],
      "outputs": [],
      "stateMutability": "payable"
    },
    {
      "type": "function",
      "name": "setRoyaltyEngineAddress",
      "inputs": [
        {
          "name": "_royaltyEngine",
          "type": "address",
          "internalType": "address"
        }
      ],
      "outputs": [],
      "stateMutability": "nonpayable"
    },
    {
      "type": "function",
      "name": "supportsInterface",
      "inputs": [
        {
          "name": "_interfaceId",
          "type": "bytes4",
          "internalType": "bytes4"
        }
      ],
      "outputs": [
        {
          "name": "",
          "type": "bool",
          "internalType": "bool"
        }
      ],
      "stateMutability": "pure"
    },
    {
      "type": "event",
      "name": "OfferCanceled",
      "inputs": [
        {
          "name": "tokenContract",
          "type": "address",
          "indexed": true,
          "internalType": "address"
        },
        {
          "name": "tokenId",
          "type": "uint256",
          "indexed": true,
          "internalType": "uint256"
        },
        {
          "name": "id",
          "type": "uint256",
          "indexed": true,
          "internalType": "uint256"
        },
        {
          "name": "offer",
          "type": "tuple",
          "indexed": false,
          "internalType": "struct OffersDataStorage.FullOffer",
          "components": [
            {
              "name": "amount",
              "type": "uint256",
              "internalType": "uint256"
            },
            {
              "name": "maker",
              "type": "address",
              "internalType": "address"
            },
            {
              "name": "expiry",
              "type": "uint96",
              "internalType": "uint96"
            },
            {
              "name": "currency",
              "type": "address",
              "internalType": "address"
            },
            {
              "name": "findersFeeBps",
              "type": "uint16",
              "internalType": "uint16"
            },
            {
              "name": "listingFeeBps",
              "type": "uint16",
              "internalType": "uint16"
            },
            {
              "name": "listingFeeRecipient",
              "type": "address",
              "internalType": "address"
            }
          ]
        }
      ],
      "anonymous": false
    },
    {
      "type": "event",
      "name": "OfferCreated",
      "inputs": [
        {
          "name": "tokenContract",
          "type": "address",
          "indexed": true,
          "internalType": "address"
        },
        {
          "name": "tokenId",
          "type": "uint256",
          "indexed": true,
          "internalType": "uint256"
        },
        {
          "name": "id",
          "type": "uint256",
          "indexed": true,
          "internalType": "uint256"
        },
        {
          "name": "offer",
          "type": "tuple",
          "indexed": false,
          "internalType": "struct OffersDataStorage.FullOffer",
          "components": [
            {
              "name": "amount",
              "type": "uint256",
              "internalType": "uint256"
            },
            {
              "name": "maker",
              "type": "address",
              "internalType": "address"
            },
            {
              "name": "expiry",
              "type": "uint96",
              "internalType": "uint96"
            },
            {
              "name": "currency",
              "type": "address",
              "internalType": "address"
            },
            {
              "name": "findersFeeBps",
              "type": "uint16",
              "internalType": "uint16"
            },
            {
              "name": "listingFeeBps",
              "type": "uint16",
              "internalType": "uint16"
            },
            {
              "name": "listingFeeRecipient",
              "type": "address",
              "internalType": "address"
            }
          ]
        }
      ],
      "anonymous": false
    },
    {
      "type": "event",
      "name": "OfferFilled",
      "inputs": [
        {
          "name": "tokenContract",
          "type": "address",
          "indexed": true,
          "internalType": "address"
        },
        {
          "name": "tokenId",
          "type": "uint256",
          "indexed": true,
          "internalType": "uint256"
        },
        {
          "name": "id",
          "type": "uint256",
          "indexed": true,
          "internalType": "uint256"
        },
        {
          "name": "taker",
          "type": "address",
          "indexed": false,
          "internalType": "address"
        },
        {
          "name": "finder",
          "type": "address",
          "indexed": false,
          "internalType": "address"
        },
        {
          "name": "offer",
          "type": "tuple",
          "indexed": false,
          "internalType": "struct OffersDataStorage.FullOffer",
          "components": [
            {
              "name": "amount",
              "type": "uint256",
              "internalType": "uint256"
            },
            {
              "name": "maker",
              "type": "address",
              "internalType": "address"
            },
            {
              "name": "expiry",
              "type": "uint96",
              "internalType": "uint96"
            },
            {
              "name": "currency",
              "type": "address",
              "internalType": "address"
            },
            {
              "name": "findersFeeBps",
              "type": "uint16",
              "internalType": "uint16"
            },
            {
              "name": "listingFeeBps",
              "type": "uint16",
              "internalType": "uint16"
            },
            {
              "name": "listingFeeRecipient",
              "type": "address",
              "internalType": "address"
            }
          ]
        }
      ],
      "anonymous": false
    },
    {
      "type": "event",
      "name": "OfferUpdated",
      "inputs": [
        {
          "name": "tokenContract",
          "type": "address",
          "indexed": true,
          "internalType": "address"
        },
        {
          "name": "tokenId",
          "type": "uint256",
          "indexed": true,
          "internalType": "uint256"
        },
        {
          "name": "id",
          "type": "uint256",
          "indexed": true,
          "internalType": "uint256"
        },
        {
          "name": "offer",
          "type": "tuple",
          "indexed": false,
          "internalType": "struct OffersDataStorage.FullOffer",
          "components": [
            {
              "name": "amount",
              "type": "uint256",
              "internalType": "uint256"
            },
            {
              "name": "maker",
              "type": "address",
              "internalType": "address"
            },
            {
              "name": "expiry",
              "type": "uint96",
              "internalType": "uint96"
            },
            {
              "name": "currency",
              "type": "address",
              "internalType": "address"
            },
            {
              "name": "findersFeeBps",
              "type": "uint16",
              "internalType": "uint16"
            },
            {
              "name": "listingFeeBps",
              "type": "uint16",
              "internalType": "uint16"
            },
            {
              "name": "listingFeeRecipient",
              "type": "address",
              "internalType": "address"
            }
          ]
        }
      ],
      "anonymous": false
    },
    {
      "type": "event",
      "name": "RoyaltyPayout",
      "inputs": [
        {
          "name": "tokenContract",
          "type": "address",
          "indexed": true,
          "internalType": "address"
        },
        {
          "name": "tokenId",
          "type": "uint256",
          "indexed": true,
          "internalType": "uint256"
        },
        {
          "name": "recipient",
          "type": "address",
          "indexed": false,
          "internalType": "address"
        },
        {
          "name": "amount",
          "type": "uint256",
          "indexed": false,
          "internalType": "uint256"
        }
      ],
      "anonymous": false
    },
    {
      "type": "error",
      "name": "CALLER_NOT_MAKER",
      "inputs": []
    },
    {
      "type": "error",
      "name": "INACTIVE_OFFER",
      "inputs": []
    },
    {
      "type": "error",
      "name": "INCORRECT_CURRENCY_OR_AMOUNT",
      "inputs": []
    },
    {
      "type": "error",
      "name": "INSUFFICIENT_ALLOWANCE",
      "inputs": []
    },
    {
      "type": "error",
      "name": "INSUFFICIENT_BALANCE",
      "inputs": []
    },
    {
      "type": "error",
      "name": "INVALID_EXPIRY",
      "inputs": []
    },
    {
      "type": "error",
      "name": "INVALID_FEES",
      "inputs": []
    },
    {
      "type": "error",
      "name": "MODULE_NOT_APPROVED",
      "inputs": []
    },
    {
      "type": "error",
      "name": "MSG_VALUE_NEQ_OFFER_AMOUNT",
      "inputs": []
    },
    {
      "type": "error",
      "name": "MSG_VALUE_NEQ_ZERO_WITH_OTHER_CURRENCY",
      "inputs": []
    },
    {
      "type": "error",
      "name": "NOT_TOKEN_OWNER",
      "inputs": []
    },
    {
      "type": "error",
      "name": "NO_ZERO_OFFERS",
      "inputs": []
    },
    {
      "type": "error",
      "name": "OFFER_EXPIRED",
      "inputs": []
    },
    {
      "type": "error",
      "name": "SAME_OFFER",
      "inputs": []
    },
    {
      "type": "error",
      "name": "TOKEN_TRANSFER_AMOUNT_INCORRECT",
      "inputs": []
    }
  ],
  "bytecode": {
    "object": "0x61012060405260016000553480156200001757600080fd5b50604051620043a0380380620043a08339810160408190526200003a9162000253565b6040518060400160405280600e81526020016d4f6666657273204f6d6e6962757360901b815250838383876001600160a01b031663e3e606f06040518163ffffffff1660e01b8152600401602060405180830381865afa158015620000a3573d6000803e3d6000fd5b505050506040513d601f19601f82011682018060405250810190620000c99190620002d3565b6001600160a01b0316632b20e3976040518163ffffffff1660e01b8152600401602060405180830381865afa15801562000107573d6000803e3d6000fd5b505050506040513d601f19601f820116820180604052508101906200012d9190620002d3565b6001600160a01b038a811660805291821660a052600180546001600160a01b0319169483169490941790935590811660e0521660c05280516200017890600290602084019062000194565b5050506001600160a01b03909216610100525062000337915050565b828054620001a290620002fa565b90600052602060002090601f016020900481019282620001c6576000855562000211565b82601f10620001e157805160ff191683800117855562000211565b8280016001018555821562000211579182015b8281111562000211578251825591602001919060010190620001f4565b506200021f92915062000223565b5090565b5b808211156200021f576000815560010162000224565b6001600160a01b03811681146200025057600080fd5b50565b600080600080600060a086880312156200026c57600080fd5b855162000279816200023a565b60208701519095506200028c816200023a565b60408701519094506200029f816200023a565b6060870151909350620002b2816200023a565b6080870151909250620002c5816200023a565b809150509295509295909350565b600060208284031215620002e657600080fd5b8151620002f3816200023a565b9392505050565b600181811c908216806200030f57607f821691505b602082108114156200033157634e487b7160e01b600052602260045260246000fd5b50919050565b60805160a05160c05160e05161010051613f7c62000424600039600081816103fb01528181610a1301528181611b37015261232b015260008181612f8701526130330152600081816101f701526126e901526000818161010b015281816107950152818161084c0152818161094001528181610e0201528181610ea301528181610f5901528181611716015281816119a601528181611fc50152818161207c015281816121330152818161225801528181612d410152612dd901526000818161029001528181610916015281816110ec0152818161182b01528181611ed6015261222e0152613f7c6000f3fe6080604052600436106100f35760003560e01c80638f9d32511161008a578063b249bb3011610059578063b249bb30146102f8578063e3b4367714610318578063ebe46344146103c9578063f7cd1d9b146103e9576100f3565b80638f9d32511461027e5780639128c22c146102b257806391e81fe1146102c5578063a85d83ad146102e5576100f3565b80631e480483116100c65780631e480483146101d25780632b20e397146101e557806341fbd3881461023e578063542423381461026b576100f3565b806301ffc9a71461013757806306fdde031461016c5780630e030d6a1461018e5780631115c24d146101ae575b3373ffffffffffffffffffffffffffffffffffffffff7f0000000000000000000000000000000000000000000000000000000000000000161461013557600080fd5b005b34801561014357600080fd5b506101576101523660046136c4565b61041d565b60405190151581526020015b60405180910390f35b34801561017857600080fd5b506101816104b6565b6040516101639190613732565b34801561019a57600080fd5b506101356101a93660046137a8565b610544565b3480156101ba57600080fd5b506101c460045481565b604051908152602001610163565b6101c46101e03660046137dd565b610719565b3480156101f157600080fd5b506102197f000000000000000000000000000000000000000000000000000000000000000081565b60405173ffffffffffffffffffffffffffffffffffffffff9091168152602001610163565b34801561024a57600080fd5b5061025e6102593660046137a8565b610be8565b6040516101639190613809565b61013561027936600461388d565b610c65565b34801561028a57600080fd5b506102197f000000000000000000000000000000000000000000000000000000000000000081565b6101c46102c03660046138df565b61120d565b3480156102d157600080fd5b506101356102e0366004613929565b6114b2565b6101c46102f33660046139a0565b611c69565b34801561030457600080fd5b50610135610313366004613a48565b6126d1565b34801561032457600080fd5b506103936103333660046137a8565b60036020908152600093845260408085208252928452828420905282529020805460019091015473ffffffffffffffffffffffffffffffffffffffff81169074010000000000000000000000000000000000000000900463ffffffff1683565b6040805193845273ffffffffffffffffffffffffffffffffffffffff909216602084015263ffffffff1690820152606001610163565b3480156103d557600080fd5b506101c46103e43660046137a8565b612893565b3480156103f557600080fd5b506102197f000000000000000000000000000000000000000000000000000000000000000081565b60007fffffffff0000000000000000000000000000000000000000000000000000000082167f3c2165150000000000000000000000000000000000000000000000000000000014806104b057507fffffffff0000000000000000000000000000000000000000000000000000000082167f01ffc9a700000000000000000000000000000000000000000000000000000000145b92915050565b600280546104c390613a65565b80601f01602080910402602001604051908101604052809291908181526020018280546104ef90613a65565b801561053c5780601f106105115761010080835404028352916020019161053c565b820191906000526020600020905b81548152906001019060200180831161051f57829003601f168201915b505050505081565b6000546001146105b5576040517f08c379a000000000000000000000000000000000000000000000000000000000815260206004820152600a60248201527f5245454e5452414e43590000000000000000000000000000000000000000000060448201526064015b60405180910390fd5b6002600090815573ffffffffffffffffffffffffffffffffffffffff8481168252600360209081526040808420868552825280842085855290915290912060010154163314610630576040517f28fa301c00000000000000000000000000000000000000000000000000000000815260040160405180910390fd5b73ffffffffffffffffffffffffffffffffffffffff8316600081815260036020908152604080832086845282528083208584529091529020829184917fe712ac72500662cc095609c4308e6eed18818d0bbd40ede89d4dc22bc3a07e1990610697906128d1565b6040516106a49190613809565b60405180910390a473ffffffffffffffffffffffffffffffffffffffff9092166000908152600360209081526040808320938352928152828220938252929092528120818155600190810180547fffffffffffffffff0000000000000000000000000000000000000000000000001690559055565b60008054600114610786576040517f08c379a000000000000000000000000000000000000000000000000000000000815260206004820152600a60248201527f5245454e5452414e43590000000000000000000000000000000000000000000060448201526064016105ac565b600260008190555060003490507f000000000000000000000000000000000000000000000000000000000000000073ffffffffffffffffffffffffffffffffffffffff1663d0e30db0346040518263ffffffff1660e01b81526004016000604051808303818588803b1580156107fb57600080fd5b505af115801561080f573d6000803e3d6000fd5b50506040517f23b872dd000000000000000000000000000000000000000000000000000000008152306004820152336024820152604481018590527f000000000000000000000000000000000000000000000000000000000000000073ffffffffffffffffffffffffffffffffffffffff1693506323b872dd925060640190506020604051808303816000875af11580156108ae573d6000803e3d6000fd5b505050506040513d601f19601f820116820180604052508101906108d29190613ab9565b506040517fdd62ed3e00000000000000000000000000000000000000000000000000000000815233600482015273ffffffffffffffffffffffffffffffffffffffff7f00000000000000000000000000000000000000000000000000000000000000008116602483015282917f00000000000000000000000000000000000000000000000000000000000000009091169063dd62ed3e90604401602060405180830381865afa158015610989573d6000803e3d6000fd5b505050506040513d601f19601f820116820180604052508101906109ad9190613adb565b10156109e5576040517f0fd3919300000000000000000000000000000000000000000000000000000000815260040160405180910390fd5b6040517f72d276920000000000000000000000000000000000000000000000000000000081523360048201527f000000000000000000000000000000000000000000000000000000000000000073ffffffffffffffffffffffffffffffffffffffff16906372d2769290602401602060405180830381865afa158015610a6f573d6000803e3d6000fd5b505050506040513d601f19601f82011682018060405250810190610a939190613ab9565b610ac9576040517fadac625100000000000000000000000000000000000000000000000000000000815260040160405180910390fd5b600460008154610ad890613b23565b9091555073ffffffffffffffffffffffffffffffffffffffff841660008181526003602090815260408083208784528252808320600480548552908352818420868155600180820180547fffffffffffffffff00000000000000000000000000000000000000000000000016337fffffffffffffffff00000000ffffffffffffffffffffffffffffffffffffffff16179055868652600585528386208a87528552928520825481549485018255908652939094209091019190915554909185907fd4ff8d453ca9a14f218b7a37378eaae3483881d791e68945a494fb387a5dc071610bc2856128d1565b604051610bcf9190613809565b60405180910390a4505060045460016000559392505050565b6040805160e08101825260008082526020808301829052828401829052606083018290526080830182905260a0830182905260c0830182905273ffffffffffffffffffffffffffffffffffffffff87168252600381528382208683528152838220858352905291909120610c5b906128d1565b90505b9392505050565b600054600114610cd1576040517f08c379a000000000000000000000000000000000000000000000000000000000815260206004820152600a60248201527f5245454e5452414e43590000000000000000000000000000000000000000000060448201526064016105ac565b6002600090815573ffffffffffffffffffffffffffffffffffffffff8087168252600360209081526040808420888552825280842087855290915290912060018101549091163314610d4f576040517f28fa301c00000000000000000000000000000000000000000000000000000000815260040160405180910390fd5b81610d86576040517f74f7a8f000000000000000000000000000000000000000000000000000000000815260040160405180910390fd5b805482148015610dc95750610d9a81612a3f565b73ffffffffffffffffffffffffffffffffffffffff168373ffffffffffffffffffffffffffffffffffffffff16145b15610e00576040517f1c2667da00000000000000000000000000000000000000000000000000000000815260040160405180910390fd5b7f000000000000000000000000000000000000000000000000000000000000000073ffffffffffffffffffffffffffffffffffffffff841615610e78573415610e75576040517f9680a35500000000000000000000000000000000000000000000000000000000815260040160405180910390fd5b50825b73ffffffffffffffffffffffffffffffffffffffff8416158015610e9c5750600034115b15610fe1577f000000000000000000000000000000000000000000000000000000000000000073ffffffffffffffffffffffffffffffffffffffff1663d0e30db0346040518263ffffffff1660e01b81526004016000604051808303818588803b158015610f0957600080fd5b505af1158015610f1d573d6000803e3d6000fd5b50506040517f23b872dd0000000000000000000000000000000000000000000000000000000081523060048201523360248201523460448201527f000000000000000000000000000000000000000000000000000000000000000073ffffffffffffffffffffffffffffffffffffffff1693506323b872dd925060640190506020604051808303816000875af1158015610fbb573d6000803e3d6000fd5b505050506040513d601f19601f82011682018060405250810190610fdf9190613ab9565b505b6040517f70a08231000000000000000000000000000000000000000000000000000000008152336004820152839073ffffffffffffffffffffffffffffffffffffffff8316906370a0823190602401602060405180830381865afa15801561104d573d6000803e3d6000fd5b505050506040513d601f19601f820116820180604052508101906110719190613adb565b10156110a9576040517f50b1f35600000000000000000000000000000000000000000000000000000000815260040160405180910390fd5b6040517fdd62ed3e00000000000000000000000000000000000000000000000000000000815233600482015273ffffffffffffffffffffffffffffffffffffffff7f00000000000000000000000000000000000000000000000000000000000000008116602483015284919083169063dd62ed3e90604401602060405180830381865afa15801561113e573d6000803e3d6000fd5b505050506040513d601f19601f820116820180604052508101906111629190613adb565b101561119a576040517f0fd3919300000000000000000000000000000000000000000000000000000000815260040160405180910390fd5b6111a48285612a87565b828255848673ffffffffffffffffffffffffffffffffffffffff89167f8a6eb4ec41ac4eb8fb97c9ec8419f7e73e57347359fe7c3985d130cc017f711b6111ea866128d1565b6040516111f79190613809565b60405180910390a4505060016000555050505050565b600033301461129e576040517f08c379a000000000000000000000000000000000000000000000000000000000815260206004820152602d60248201527f5f68616e646c65526f79616c7479456e67696e655061796f7574206f6e6c792060448201527f73656c662063616c6c61626c650000000000000000000000000000000000000060648201526084016105ac565b6001546040517ff533b80200000000000000000000000000000000000000000000000000000000815273ffffffffffffffffffffffffffffffffffffffff87811660048301526024820187905260448201869052600092839291169063f533b802906064016000604051808303816000875af1158015611322573d6000803e3d6000fd5b505050506040513d6000823e601f3d9081017fffffffffffffffffffffffffffffffffffffffffffffffffffffffffffffffe01682016040526113689190810190613c69565b815191935091508061137f578593505050506114aa565b85600080805b848110156114a05786818151811061139f5761139f613d2e565b602002602001015192508581815181106113bb576113bb613d2e565b602002602001015191508184101561142f576040517f08c379a000000000000000000000000000000000000000000000000000000000815260206004820152600960248201527f696e736f6c76656e74000000000000000000000000000000000000000000000060448201526064016105ac565b61143d83838b61c350612be2565b6040805173ffffffffffffffffffffffffffffffffffffffff8581168252602082018590528d92908f16917f866e6ef8682ddf5f1025e64dfdb45527077f7be70fa9ef680b7ffd8cf4ab9c50910160405180910390a39281900392600101611385565b5091955050505050505b949350505050565b60005460011461151e576040517f08c379a000000000000000000000000000000000000000000000000000000000815260206004820152600a60248201527f5245454e5452414e43590000000000000000000000000000000000000000000060448201526064016105ac565b6002600090815573ffffffffffffffffffffffffffffffffffffffff80881682526003602090815260408084208985528252808420888552909152909120600181015490911661159a576040517f362751aa00000000000000000000000000000000000000000000000000000000815260040160405180910390fd5b6040517f6352211e00000000000000000000000000000000000000000000000000000000815260048101879052339073ffffffffffffffffffffffffffffffffffffffff891690636352211e90602401602060405180830381865afa158015611607573d6000803e3d6000fd5b505050506040513d601f19601f8201168201806040525081019061162b9190613d5d565b73ffffffffffffffffffffffffffffffffffffffff1614611678576040517f68e0a20c00000000000000000000000000000000000000000000000000000000815260040160405180910390fd5b600061168382612a3f565b90508373ffffffffffffffffffffffffffffffffffffffff168173ffffffffffffffffffffffffffffffffffffffff161415806116c1575081548514155b156116f8576040517f264434d000000000000000000000000000000000000000000000000000000000815260040160405180910390fd5b73ffffffffffffffffffffffffffffffffffffffff841661173657507f00000000000000000000000000000000000000000000000000000000000000005b6040517f70a08231000000000000000000000000000000000000000000000000000000008152306004820152819060009073ffffffffffffffffffffffffffffffffffffffff8316906370a0823190602401602060405180830381865afa1580156117a5573d6000803e3d6000fd5b505050506040513d601f19601f820116820180604052508101906117c99190613adb565b60018501546040517fd9fc4b6100000000000000000000000000000000000000000000000000000000815273ffffffffffffffffffffffffffffffffffffffff86811660048301529182166024820152306044820152606481018a90529192507f0000000000000000000000000000000000000000000000000000000000000000169063d9fc4b6190608401600060405180830381600087803b15801561186f57600080fd5b505af1158015611883573d6000803e3d6000fd5b50506040517f70a082310000000000000000000000000000000000000000000000000000000081523060048201526000925073ffffffffffffffffffffffffffffffffffffffff851691506370a0823190602401602060405180830381865afa1580156118f4573d6000803e3d6000fd5b505050506040513d601f19601f820116820180604052508101906119189190613adb565b9050806119258984613d7a565b1461195c576040517fdc4ee93500000000000000000000000000000000000000000000000000000000815260040160405180910390fd5b73ffffffffffffffffffffffffffffffffffffffff8716611a18576040517f2e1a7d4d000000000000000000000000000000000000000000000000000000008152600481018990527f000000000000000000000000000000000000000000000000000000000000000073ffffffffffffffffffffffffffffffffffffffff1690632e1a7d4d90602401600060405180830381600087803b1580156119ff57600080fd5b505af1158015611a13573d6000803e3d6000fd5b505050505b600185015460207401000000000000000000000000000000000000000090910481161415611a9b576020600081815260028701909152604090205442906bffffffffffffffffffffffff161015611a9b576040517fed67a1d400000000000000000000000000000000000000000000000000000000815260040160405180910390fd5b6000611aad8c8c8b8b620493e0612e32565b509050611aba8189612f38565b9050611ac881878a8a6130d6565b9050611ad833828a61c350612be2565b60018601546040517f15dacbea00000000000000000000000000000000000000000000000000000000815273ffffffffffffffffffffffffffffffffffffffff8e811660048301523360248301529182166044820152606481018d90527f0000000000000000000000000000000000000000000000000000000000000000909116906315dacbea90608401600060405180830381600087803b158015611b7d57600080fd5b505af1158015611b91573d6000803e3d6000fd5b50505050898b8d73ffffffffffffffffffffffffffffffffffffffff167f974607c27672959fd859a90304b230ed0d7b1b4e916c0e0445e9b0f3db3fbe09338b611bda8c6128d1565b604051611be993929190613d92565b60405180910390a450505073ffffffffffffffffffffffffffffffffffffffff909816600090815260036020908152604080832099835298815288822097825296909652505050928220828155600190810180547fffffffffffffffff000000000000000000000000000000000000000000000000169055909155505050565b60008054600114611cd6576040517f08c379a000000000000000000000000000000000000000000000000000000000815260206004820152600a60248201527f5245454e5452414e43590000000000000000000000000000000000000000000060448201526064016105ac565b600260005585611d12576040517f74f7a8f000000000000000000000000000000000000000000000000000000000815260040160405180910390fd5b600460008154611d2190613b23565b9091555073ffffffffffffffffffffffffffffffffffffffff808a1660008181526005602090815260408083208d8452825280832060048054825460018101845592865284862090920191909155938352600382528083208d84528252808320935483529290522090881615611f8a573415611dc9576040517f9680a35500000000000000000000000000000000000000000000000000000000815260040160405180910390fd5b6040517f70a082310000000000000000000000000000000000000000000000000000000081523360048201528890889073ffffffffffffffffffffffffffffffffffffffff8316906370a0823190602401602060405180830381865afa158015611e37573d6000803e3d6000fd5b505050506040513d601f19601f82011682018060405250810190611e5b9190613adb565b1015611e93576040517f50b1f35600000000000000000000000000000000000000000000000000000000815260040160405180910390fd5b6040517fdd62ed3e00000000000000000000000000000000000000000000000000000000815233600482015273ffffffffffffffffffffffffffffffffffffffff7f00000000000000000000000000000000000000000000000000000000000000008116602483015289919083169063dd62ed3e90604401602060405180830381865afa158015611f28573d6000803e3d6000fd5b505050506040513d601f19601f82011682018060405250810190611f4c9190613adb565b1015611f84576040517f0fd3919300000000000000000000000000000000000000000000000000000000815260040160405180910390fd5b506122fd565b863414611fc3576040517f3bda22e500000000000000000000000000000000000000000000000000000000815260040160405180910390fd5b7f000000000000000000000000000000000000000000000000000000000000000073ffffffffffffffffffffffffffffffffffffffff1663d0e30db0346040518263ffffffff1660e01b81526004016000604051808303818588803b15801561202b57600080fd5b505af115801561203f573d6000803e3d6000fd5b50506040517f23b872dd000000000000000000000000000000000000000000000000000000008152306004820152336024820152604481018b90527f000000000000000000000000000000000000000000000000000000000000000073ffffffffffffffffffffffffffffffffffffffff1693506323b872dd925060640190506020604051808303816000875af11580156120de573d6000803e3d6000fd5b505050506040513d601f19601f820116820180604052508101906121029190613ab9565b506040517f70a0823100000000000000000000000000000000000000000000000000000000815233600482015287907f000000000000000000000000000000000000000000000000000000000000000073ffffffffffffffffffffffffffffffffffffffff16906370a0823190602401602060405180830381865afa15801561218f573d6000803e3d6000fd5b505050506040513d601f19601f820116820180604052508101906121b39190613adb565b10156121eb576040517f50b1f35600000000000000000000000000000000000000000000000000000000815260040160405180910390fd5b6040517fdd62ed3e00000000000000000000000000000000000000000000000000000000815233600482015273ffffffffffffffffffffffffffffffffffffffff7f00000000000000000000000000000000000000000000000000000000000000008116602483015288917f00000000000000000000000000000000000000000000000000000000000000009091169063dd62ed3e90604401602060405180830381865afa1580156122a1573d6000803e3d6000fd5b505050506040513d601f19601f820116820180604052508101906122c59190613adb565b10156122fd576040517f0fd3919300000000000000000000000000000000000000000000000000000000815260040160405180910390fd5b6040517f72d276920000000000000000000000000000000000000000000000000000000081523360048201527f000000000000000000000000000000000000000000000000000000000000000073ffffffffffffffffffffffffffffffffffffffff16906372d2769290602401602060405180830381865afa158015612387573d6000803e3d6000fd5b505050506040513d601f19601f820116820180604052508101906123ab9190613ab9565b6123e1576040517fadac625100000000000000000000000000000000000000000000000000000000815260040160405180910390fd5b6001810180548883557fffffffffffffffff00000000000000000000000000000000000000000000000016337fffffffffffffffff00000000ffffffffffffffffffffffffffffffffffffffff1617905561243c8189612a87565b6127106124498587613e3b565b61ffff161115612485576040517ff46705d400000000000000000000000000000000000000000000000000000000815260040160405180910390fd5b61ffff841615612519576001810180547fffffffffffffffff00000000ffffffffffffffffffffffffffffffffffffffff81166008740100000000000000000000000000000000000000009283900463ffffffff1681179092021790915560009081526002820160205260409020601084901b75ffffffffffffffffffffffffffffffffffffffff00001661ffff86161790555b61ffff85161561258f576001810180547fffffffffffffffff00000000ffffffffffffffffffffffffffffffffffffffff81166010740100000000000000000000000000000000000000009283900463ffffffff168117909202179091556000908152600282016020526040902061ffff861690555b6bffffffffffffffffffffffff8616156126615742866bffffffffffffffffffffffff1610156125eb576040517f416a21bd00000000000000000000000000000000000000000000000000000000815260040160405180910390fd5b6001810180547fffffffffffffffff00000000ffffffffffffffffffffffffffffffffffffffff81166020740100000000000000000000000000000000000000009283900463ffffffff16811790920217909155600081815260028301909152604090206bffffffffffffffffffffffff871690555b600454898b73ffffffffffffffffffffffffffffffffffffffff167fd4ff8d453ca9a14f218b7a37378eaae3483881d791e68945a494fb387a5dc0716126a6856128d1565b6040516126b39190613809565b60405180910390a45050600454600160005598975050505050505050565b3373ffffffffffffffffffffffffffffffffffffffff7f00000000000000000000000000000000000000000000000000000000000000001614612796576040517f08c379a000000000000000000000000000000000000000000000000000000000815260206004820152602660248201527f736574526f79616c7479456e67696e6541646472657373206f6e6c792072656760448201527f697374726172000000000000000000000000000000000000000000000000000060648201526084016105ac565b6127c0817fcb23f81600000000000000000000000000000000000000000000000000000000613208565b61284c576040517f08c379a000000000000000000000000000000000000000000000000000000000815260206004820152603d60248201527f736574526f79616c7479456e67696e6541646472657373206d757374206d617460448201527f63682049526f79616c7479456e67696e65563120696e7465726661636500000060648201526084016105ac565b600180547fffffffffffffffffffffffff00000000000000000000000000000000000000001673ffffffffffffffffffffffffffffffffffffffff92909216919091179055565b600560205282600052604060002060205281600052604060002081815481106128bb57600080fd5b9060005260206000200160009250925050505481565b6040805160e08082018352600080835260208084018290528385018290526060808501839052608080860184905260a080870185905260c080880186905260018a015489519788018a528688529487018690529786018590529185018490528401839052830182905293820152909174010000000000000000000000000000000000000000900463ffffffff81169190600890811614156129a95760086000908152600285016020526040902054601081901c73ffffffffffffffffffffffffffffffffffffffff1660c083015261ffff1660a08201525b601080831614156129d1576010600090815260028501602052604090205461ffff1660808201525b60208083161415612a0357602060008181526002860190915260409020546bffffffffffffffffffffffff1660408201525b612a0c84612a3f565b73ffffffffffffffffffffffffffffffffffffffff90811660608301526001850154166020820152925483525090919050565b6001810154600090604074010000000000000000000000000000000000000000909104811614612a7157506000919050565b5060406000818152600290920160205290205490565b73ffffffffffffffffffffffffffffffffffffffff8116158015612aca575060018201546040740100000000000000000000000000000000000000009091048116145b15612b1f576001820180547fffffffffffffffff00000000ffffffffffffffffffffffffffffffffffffffff8116740100000000000000000000000000000000000000009182900463ffffffbf169091021790555b73ffffffffffffffffffffffffffffffffffffffff811615612bde576001820154604074010000000000000000000000000000000000000000909104811614612bb5576001820180547fffffffffffffffff00000000ffffffffffffffffffffffffffffffffffffffff81166040740100000000000000000000000000000000000000009283900463ffffffff16179091021790555b60406000818152600284016020522073ffffffffffffffffffffffffffffffffffffffff821690555b5050565b821580612c03575073ffffffffffffffffffffffffffffffffffffffff8416155b15612c0d57612e2c565b73ffffffffffffffffffffffffffffffffffffffff8216612e0b5782471015612cb8576040517f08c379a000000000000000000000000000000000000000000000000000000000815260206004820152602160248201527f5f68616e646c654f7574676f696e675472616e7366657220696e736f6c76656e60448201527f740000000000000000000000000000000000000000000000000000000000000060648201526084016105ac565b6000811580612cc657505a82115b612cd05781612cd2565b5a5b905060008573ffffffffffffffffffffffffffffffffffffffff16858390604051600060405180830381858888f193505050503d8060008114612d31576040519150601f19603f3d011682016040523d82523d6000602084013e612d36565b606091505b5050905080612e04577f000000000000000000000000000000000000000000000000000000000000000073ffffffffffffffffffffffffffffffffffffffff1663d0e30db0866040518263ffffffff1660e01b81526004016000604051808303818588803b158015612da757600080fd5b505af1158015612dbb573d6000803e3d6000fd5b50612e0493505073ffffffffffffffffffffffffffffffffffffffff7f000000000000000000000000000000000000000000000000000000000000000016915088905087613224565b5050612e2c565b612e2c73ffffffffffffffffffffffffffffffffffffffff83168585613224565b50505050565b60008080831580612e4257505a84115b612e4c5783612e4e565b5a5b6040517f9128c22c00000000000000000000000000000000000000000000000000000000815273ffffffffffffffffffffffffffffffffffffffff808b166004830152602482018a905260448201899052871660648201529091503090639128c22c90839060840160206040518083038160008887f193505050508015612f10575060408051601f3d9081017fffffffffffffffffffffffffffffffffffffffffffffffffffffffffffffffe0168201909252612f0d91810190613adb565b60015b612f21578560009250925050612f2e565b925060019150612f2e9050565b9550959350505050565b6040517f61b485f600000000000000000000000000000000000000000000000000000000815230600482015260248101839052600090819073ffffffffffffffffffffffffffffffffffffffff7f000000000000000000000000000000000000000000000000000000000000000016906361b485f690604401602060405180830381865afa158015612fce573d6000803e3d6000fd5b505050506040513d601f19601f82011682018060405250810190612ff29190613adb565b90508061300257839150506104b0565b6040517f86ab6fb90000000000000000000000000000000000000000000000000000000081523060048201526000907f000000000000000000000000000000000000000000000000000000000000000073ffffffffffffffffffffffffffffffffffffffff16906386ab6fb9906024016040805180830381865afa15801561308e573d6000803e3d6000fd5b505050506040513d601f19601f820116820180604052508101906130b29190613e61565b9150506130c381838661c350612be2565b6130cd8286613e9b565b95945050505050565b6001830154849060009081908190600874010000000000000000000000000000000000000000909104811614156131405760086000908152600288016020526040902054601081901c925061271061313261ffff831687613eb2565b61313c9190613eef565b9350505b73ffffffffffffffffffffffffffffffffffffffff851615801590613184575060018701546010740100000000000000000000000000000000000000009091048116145b156131bb5760106000908152600288016020526040902054612710906131ae9061ffff1686613eb2565b6131b89190613eef565b90505b82156131dc576131cf82848861c350612be2565b6131d98385613e9b565b93505b80156131fd576131f085828861c350612be2565b6131fa8185613e9b565b93505b505050949350505050565b6000613213836132b6565b8015610c5e5750610c5e838361331a565b6040805173ffffffffffffffffffffffffffffffffffffffff8416602482015260448082018490528251808303909101815260649091019091526020810180517bffffffffffffffffffffffffffffffffffffffffffffffffffffffff167fa9059cbb000000000000000000000000000000000000000000000000000000001790526132b1908490613456565b505050565b60006132e2827f01ffc9a70000000000000000000000000000000000000000000000000000000061331a565b80156104b05750613313827fffffffff0000000000000000000000000000000000000000000000000000000061331a565b1592915050565b604080517fffffffff00000000000000000000000000000000000000000000000000000000831660248083019190915282518083039091018152604490910182526020810180517bffffffffffffffffffffffffffffffffffffffffffffffffffffffff167f01ffc9a7000000000000000000000000000000000000000000000000000000001790529051600091908290819073ffffffffffffffffffffffffffffffffffffffff871690617530906133d4908690613f2a565b6000604051808303818686fa925050503d8060008114613410576040519150601f19603f3d011682016040523d82523d6000602084013e613415565b606091505b509150915060208151101561343057600093505050506104b0565b81801561344c57508080602001905181019061344c9190613ab9565b9695505050505050565b60006134b8826040518060400160405280602081526020017f5361666545524332303a206c6f772d6c6576656c2063616c6c206661696c65648152508573ffffffffffffffffffffffffffffffffffffffff166135629092919063ffffffff16565b8051909150156132b157808060200190518101906134d69190613ab9565b6132b1576040517f08c379a000000000000000000000000000000000000000000000000000000000815260206004820152602a60248201527f5361666545524332303a204552433230206f7065726174696f6e20646964206e60448201527f6f7420737563636565640000000000000000000000000000000000000000000060648201526084016105ac565b6060610c5b84846000858573ffffffffffffffffffffffffffffffffffffffff85163b6135eb576040517f08c379a000000000000000000000000000000000000000000000000000000000815260206004820152601d60248201527f416464726573733a2063616c6c20746f206e6f6e2d636f6e747261637400000060448201526064016105ac565b6000808673ffffffffffffffffffffffffffffffffffffffff1685876040516136149190613f2a565b60006040518083038185875af1925050503d8060008114613651576040519150601f19603f3d011682016040523d82523d6000602084013e613656565b606091505b5091509150613666828286613671565b979650505050505050565b60608315613680575081610c5e565b8251156136905782518084602001fd5b816040517f08c379a00000000000000000000000000000000000000000000000000000000081526004016105ac9190613732565b6000602082840312156136d657600080fd5b81357fffffffff0000000000000000000000000000000000000000000000000000000081168114610c5e57600080fd5b60005b83811015613721578181015183820152602001613709565b83811115612e2c5750506000910152565b6020815260008251806020840152613751816040850160208701613706565b601f017fffffffffffffffffffffffffffffffffffffffffffffffffffffffffffffffe0169190910160400192915050565b73ffffffffffffffffffffffffffffffffffffffff811681146137a557600080fd5b50565b6000806000606084860312156137bd57600080fd5b83356137c881613783565b95602085013595506040909401359392505050565b600080604083850312156137f057600080fd5b82356137fb81613783565b946020939093013593505050565b60e081016104b0828480518252602081015173ffffffffffffffffffffffffffffffffffffffff80821660208501526bffffffffffffffffffffffff60408401511660408501528060608401511660608501526080830151915061ffff80831660808601528060a08501511660a0860152508060c08401511660c085015250505050565b600080600080600060a086880312156138a557600080fd5b85356138b081613783565b9450602086013593506040860135925060608601356138ce81613783565b949793965091946080013592915050565b600080600080608085870312156138f557600080fd5b843561390081613783565b93506020850135925060408501359150606085013561391e81613783565b939692955090935050565b60008060008060008060c0878903121561394257600080fd5b863561394d81613783565b9550602087013594506040870135935060608701359250608087013561397281613783565b915060a087013561398281613783565b809150509295509295509295565b61ffff811681146137a557600080fd5b600080600080600080600080610100898b0312156139bd57600080fd5b88356139c881613783565b97506020890135965060408901356139df81613783565b95506060890135945060808901356bffffffffffffffffffffffff81168114613a0757600080fd5b935060a0890135613a1781613990565b925060c0890135613a2781613990565b915060e0890135613a3781613783565b809150509295985092959890939650565b600060208284031215613a5a57600080fd5b8135610c5e81613783565b600181811c90821680613a7957607f821691505b60208210811415613ab3577f4e487b7100000000000000000000000000000000000000000000000000000000600052602260045260246000fd5b50919050565b600060208284031215613acb57600080fd5b81518015158114610c5e57600080fd5b600060208284031215613aed57600080fd5b5051919050565b7f4e487b7100000000000000000000000000000000000000000000000000000000600052601160045260246000fd5b60007fffffffffffffffffffffffffffffffffffffffffffffffffffffffffffffffff821415613b5557613b55613af4565b5060010190565b7f4e487b7100000000000000000000000000000000000000000000000000000000600052604160045260246000fd5b604051601f82017fffffffffffffffffffffffffffffffffffffffffffffffffffffffffffffffe016810167ffffffffffffffff81118282101715613bd257613bd2613b5c565b604052919050565b600067ffffffffffffffff821115613bf457613bf4613b5c565b5060051b60200190565b600082601f830112613c0f57600080fd5b81516020613c24613c1f83613bda565b613b8b565b82815260059290921b84018101918181019086841115613c4357600080fd5b8286015b84811015613c5e5780518352918301918301613c47565b509695505050505050565b60008060408385031215613c7c57600080fd5b825167ffffffffffffffff80821115613c9457600080fd5b818501915085601f830112613ca857600080fd5b81516020613cb8613c1f83613bda565b82815260059290921b84018101918181019089841115613cd757600080fd5b948201945b83861015613cfe578551613cef81613783565b82529482019490820190613cdc565b91880151919650909350505080821115613d1757600080fd5b50613d2485828601613bfe565b9150509250929050565b7f4e487b7100000000000000000000000000000000000000000000000000000000600052603260045260246000fd5b600060208284031215613d6f57600080fd5b8151610c5e81613783565b60008219821115613d8d57613d8d613af4565b500190565b73ffffffffffffffffffffffffffffffffffffffff84811682528316602082015261012081016114aa604083018480518252602081015173ffffffffffffffffffffffffffffffffffffffff80821660208501526bffffffffffffffffffffffff60408401511660408501528060608401511660608501526080830151915061ffff80831660808601528060a08501511660a0860152508060c08401511660c085015250505050565b600061ffff808316818516808303821115613e5857613e58613af4565b01949350505050565b60008060408385031215613e7457600080fd5b8251613e7f81613990565b6020840151909250613e9081613783565b809150509250929050565b600082821015613ead57613ead613af4565b500390565b6000817fffffffffffffffffffffffffffffffffffffffffffffffffffffffffffffffff0483118215151615613eea57613eea613af4565b500290565b600082613f25577f4e487b7100000000000000000000000000000000000000000000000000000000600052601260045260246000fd5b500490565b60008251613f3c818460208701613706565b919091019291505056fea2646970667358221220ae78791491f65ec484bcc1253f33ca3968dd2d95a3eac8b9ea16f8ab42727df964736f6c634300080a0033",
    "linkReferences": {}
  },
  "methodIdentifiers": {
    "_handleRoyaltyEnginePayout(address,uint256,uint256,address)": "9128c22c",
    "cancelOffer(address,uint256,uint256)": "0e030d6a",
    "createOffer(address,uint256,address,uint256,uint96,uint16,uint16,address)": "a85d83ad",
    "createOfferMinimal(address,uint256)": "1e480483",
    "erc20TransferHelper()": "8f9d3251",
    "erc721TransferHelper()": "f7cd1d9b",
    "fillOffer(address,uint256,uint256,uint256,address,address)": "91e81fe1",
    "getFullOffer(address,uint256,uint256)": "41fbd388",
    "name()": "06fdde03",
    "offerCount()": "1115c24d",
    "offers(address,uint256,uint256)": "e3b43677",
    "offersForNFT(address,uint256,uint256)": "ebe46344",
    "registrar()": "2b20e397",
    "setOfferAmount(address,uint256,uint256,address,uint256)": "54242338",
    "setRoyaltyEngineAddress(address)": "b249bb30",
    "supportsInterface(bytes4)": "01ffc9a7"
  },
  "id": 9
}