{"abi":[{"type":"constructor","inputs":[{"name":"_registrar","type":"address","internalType":"address"},{"name":"_feeToken","type":"address","internalType":"address"}],"stateMutability":"nonpayable"},{"type":"function","name":"isModuleApproved","inputs":[{"name":"_user","type":"address","internalType":"address"},{"name":"_module","type":"address","internalType":"address"}],"outputs":[{"name":"","type":"bool","internalType":"bool"}],"stateMutability":"view"},{"type":"function","name":"moduleFeeToken","inputs":[],"outputs":[{"name":"","type":"address","internalType":"contract ZoraProtocolFeeSettings"}],"stateMutability":"view"},{"type":"function","name":"moduleRegistered","inputs":[{"name":"","type":"address","internalType":"address"}],"outputs":[{"name":"","type":"bool","internalType":"bool"}],"stateMutability":"view"},{"type":"function","name":"registerModule","inputs":[{"name":"_module","type":"address","internalType":"address"}],"outputs":[],"stateMutability":"nonpayable"},{"type":"function","name":"registrar","inputs":[],"outputs":[{"name":"","type":"address","internalType":"address"}],"stateMutability":"view"},{"type":"function","name":"setApprovalForModule","inputs":[{"name":"_module","type":"address","internalType":"address"},{"name":"_approved","type":"bool","internalType":"bool"}],"outputs":[],"stateMutability":"nonpayable"},{"type":"function","name":"setApprovalForModuleBySig","inputs":[{"name":"_module","type":"address","internalType":"address"},{"name":"_user","type":"address","internalType":"address"},{"name":"_approved","type":"bool","internalType":"bool"},{"name":"_deadline","type":"uint256","internalType":"uint256"},{"name":"_v","type":"uint8","internalType":"uint8"},{"name":"_r","type":"bytes32","internalType":"bytes32"},{"name":"_s","type":"bytes32","internalType":"bytes32"}],"outputs":[],"stateMutability":"nonpayable"},{"type":"function","name":"setBatchApprovalForModules","inputs":[{"name":"_modules","type":"address[]","internalType":"address[]"},{"name":"_approved","type":"bool","internalType":"bool"}],"outputs":[],"stateMutability":"nonpayable"},{"type":"function","name":"setRegistrar","inputs":[{"name":"_registrar","type":"address","internalType":"address"}],"outputs":[],"stateMutability":"nonpayable"},{"type":"function","name":"sigNonces","inputs":[{"name":"","type":"address","internalType":"address"}],"outputs":[{"name":"","type":"uint256","internalType":"uint256"}],"stateMutability":"view"},{"type":"function","name":"userApprovals","inputs":[{"name":"","type":"address","internalType":"address"},{"name":"","type":"address","internalType":"address"}],"outputs":[{"name":"","type":"bool","internalType":"bool"}],"stateMutability":"view"},{"type":"event","name":"ModuleApprovalSet","inputs":[{"name":"user","type":"address","indexed":true,"internalType":"address"},{"name":"module","type":"address","indexed":true,"internalType":"address"},{"name":"approved","type":"bool","indexed":false,"internalType":"bool"}],"anonymous":false},{"type":"event","name":"ModuleRegistered","inputs":[{"name":"module","type":"address","indexed":true,"internalType":"address"}],"anonymous":false},{"type":"event","name":"RegistrarChanged","inputs":[{"name":"newRegistrar","type":"address","indexed":true,"internalType":"address"}],"anonymous":false}],"bytecode":{"object":"0x600460c052635a4f524160e01b60e0527f8b73c3c69bb8fe3d512ecc4cf759cc79239f7b179b0ffacaa9a75d522b39400f6101209081527fce58904c16226b928edd08e5ee91745b8b749acafb24ab016c32bb2f06593481610140527f2a80e1ef1d7842f27f2e6be0972bb708b9a135c38860dbe73c27c3486c34f4de610160524661018052306101a05260a06101008190526101c060405290206080523480156100a957600080fd5b5060405161101d38038061101d8339810160408190526100c891610177565b6001600160a01b0382166101365760405162461bcd60e51b815260206004820152602b60248201527f5a4d4d3a3a6d757374207365742072656769737472617220746f206e6f6e2d7a60448201526a65726f206164647265737360a81b606482015260840160405180910390fd5b600080546001600160a01b0319166001600160a01b039384161790551660a0526101aa565b80516001600160a01b038116811461017257600080fd5b919050565b6000806040838503121561018a57600080fd5b6101938361015b565b91506101a16020840161015b565b90509250929050565b60805160a051610e476101d6600039600081816101cc01526107a1015260006103e60152610e476000f3fe608060405234801561001057600080fd5b50600436106100c95760003560e01c80639e4a400c11610081578063f990ccd71161005b578063f990ccd714610214578063faab9d3914610242578063fbef5f521461025557600080fd5b80639e4a400c146101c7578063ad64ae4b146101ee578063bcb11ad31461020157600080fd5b80632b20e397116100b25780632b20e3971461012657806337436c981461016b5780639dbb83a7146101b457600080fd5b8063152c1b5b146100ce5780631be50153146100e3575b600080fd5b6100e16100dc366004610bac565b610278565b005b6101116100f1366004610bdf565b600160209081526000928352604080842090915290825290205460ff1681565b60405190151581526020015b60405180910390f35b6000546101469073ffffffffffffffffffffffffffffffffffffffff1681565b60405173ffffffffffffffffffffffffffffffffffffffff909116815260200161011d565b610111610179366004610bdf565b73ffffffffffffffffffffffffffffffffffffffff918216600090815260016020908152604080832093909416825291909152205460ff1690565b6100e16101c2366004610c09565b610287565b6101467f000000000000000000000000000000000000000000000000000000000000000081565b6100e16101fc366004610c83565b6105bc565b6100e161020f366004610cd4565b610855565b610234610222366004610c83565b60036020526000908152604090205481565b60405190815260200161011d565b6100e1610250366004610c83565b610894565b610111610263366004610c83565b60026020526000908152604090205460ff1681565b610283823383610a4a565b5050565b8315806102945750428410155b610325576040517f08c379a000000000000000000000000000000000000000000000000000000000815260206004820152602f60248201527f5a4d4d3a3a736574417070726f76616c466f724d6f64756c654279536967206460448201527f6561646c696e652065787069726564000000000000000000000000000000000060648201526084015b60405180910390fd5b73ffffffffffffffffffffffffffffffffffffffff868116600081815260036020908152604080832080546001810190915581517f8413132cc7aa5bd2ce1a1b142a3f09e2baeda86addf4f9a5dacd4679f56e7cec81850152958d16868301526060860194909452891515608086015260a0850189905260c0808601949094528051808603909401845260e08501905282519201919091207f19010000000000000000000000000000000000000000000000000000000000006101008401527f00000000000000000000000000000000000000000000000000000000000000006101028401526101228301529061014201604080517fffffffffffffffffffffffffffffffffffffffffffffffffffffffffffffffe08184030181528282528051602091820120600080855291840180845281905260ff88169284019290925260608301869052608083018590529092509060019060a0016020604051602081039080840390855afa15801561049f573d6000803e3d6000fd5b50506040517fffffffffffffffffffffffffffffffffffffffffffffffffffffffffffffffe0015191505073ffffffffffffffffffffffffffffffffffffffff81161580159061051a57508773ffffffffffffffffffffffffffffffffffffffff168173ffffffffffffffffffffffffffffffffffffffff16145b6105a6576040517f08c379a000000000000000000000000000000000000000000000000000000000815260206004820152603060248201527f5a4d4d3a3a736574417070726f76616c466f724d6f64756c654279536967206960448201527f6e76616c6964207369676e617475726500000000000000000000000000000000606482015260840161031c565b6105b1898989610a4a565b505050505050505050565b60005473ffffffffffffffffffffffffffffffffffffffff163314610662576040517f08c379a0000000000000000000000000000000000000000000000000000000008152602060048201526024808201527f5a4d4d3a3a6f6e6c79526567697374726172206d75737420626520726567697360448201527f7472617200000000000000000000000000000000000000000000000000000000606482015260840161031c565b73ffffffffffffffffffffffffffffffffffffffff811660009081526002602052604090205460ff1615610718576040517f08c379a000000000000000000000000000000000000000000000000000000000815260206004820152602d60248201527f5a4d4d3a3a72656769737465724d6f64756c65206d6f64756c6520616c72656160448201527f6479207265676973746572656400000000000000000000000000000000000000606482015260840161031c565b73ffffffffffffffffffffffffffffffffffffffff81811660008181526002602052604080822080547fffffffffffffffffffffffffffffffffffffffffffffffffffffffffffffff00166001179055905490517fee1fe2ad000000000000000000000000000000000000000000000000000000008152908316600482015260248101919091527f00000000000000000000000000000000000000000000000000000000000000009091169063ee1fe2ad906044016020604051808303816000875af11580156107ec573d6000803e3d6000fd5b505050506040513d601f19601f820116820180604052508101906108109190610dc9565b5060405173ffffffffffffffffffffffffffffffffffffffff8216907f0961fbae397458c42f3f186eaabee4a989aafde93ac5d8d122cff462423a241e90600090a250565b815160005b8181101561088e5761088684828151811061087757610877610de2565b60200260200101513385610a4a565b60010161085a565b50505050565b60005473ffffffffffffffffffffffffffffffffffffffff16331461093a576040517f08c379a0000000000000000000000000000000000000000000000000000000008152602060048201526024808201527f5a4d4d3a3a6f6e6c79526567697374726172206d75737420626520726567697360448201527f7472617200000000000000000000000000000000000000000000000000000000606482015260840161031c565b73ffffffffffffffffffffffffffffffffffffffff81166109dd576040517f08c379a000000000000000000000000000000000000000000000000000000000815260206004820152603860248201527f5a4d4d3a3a736574526567697374726172206d7573742073657420726567697360448201527f7472617220746f206e6f6e2d7a65726f20616464726573730000000000000000606482015260840161031c565b600080547fffffffffffffffffffffffff00000000000000000000000000000000000000001673ffffffffffffffffffffffffffffffffffffffff8316908117825560405190917f6e4c52923c1e70447ecc72995ce26bf2400d9c26b1a7c21ab433e7caff8d40a291a250565b73ffffffffffffffffffffffffffffffffffffffff831660009081526002602052604090205460ff16610ad9576040517f08c379a000000000000000000000000000000000000000000000000000000000815260206004820152601e60248201527f5a4d4d3a3a6d7573742062652072656769737465726564206d6f64756c650000604482015260640161031c565b73ffffffffffffffffffffffffffffffffffffffff82811660009081526001602090815260408083209387168084529382529182902080547fffffffffffffffffffffffffffffffffffffffffffffffffffffffffffffff0016851515908117909155915191825233917fae7dcf035464e268e998bd5ac0ac831ce45a68f2c2fbd438d6c1c5965eba79f2910160405180910390a3505050565b803573ffffffffffffffffffffffffffffffffffffffff81168114610b9757600080fd5b919050565b80358015158114610b9757600080fd5b60008060408385031215610bbf57600080fd5b610bc883610b73565b9150610bd660208401610b9c565b90509250929050565b60008060408385031215610bf257600080fd5b610bfb83610b73565b9150610bd660208401610b73565b600080600080600080600060e0888a031215610c2457600080fd5b610c2d88610b73565b9650610c3b60208901610b73565b9550610c4960408901610b9c565b945060608801359350608088013560ff81168114610c6657600080fd5b9699959850939692959460a0840135945060c09093013592915050565b600060208284031215610c9557600080fd5b610c9e82610b73565b9392505050565b7f4e487b7100000000000000000000000000000000000000000000000000000000600052604160045260246000fd5b60008060408385031215610ce757600080fd5b823567ffffffffffffffff80821115610cff57600080fd5b818501915085601f830112610d1357600080fd5b8135602082821115610d2757610d27610ca5565b8160051b6040517fffffffffffffffffffffffffffffffffffffffffffffffffffffffffffffffe0603f83011681018181108682111715610d6a57610d6a610ca5565b604052928352818301935084810182019289841115610d8857600080fd5b948201945b83861015610dad57610d9e86610b73565b85529482019493820193610d8d565b9650610dbc9050878201610b9c565b9450505050509250929050565b600060208284031215610ddb57600080fd5b5051919050565b7f4e487b7100000000000000000000000000000000000000000000000000000000600052603260045260246000fdfea264697066735822122056cf7110f69d55909945a385f5512dd6aaade99485b1dbb88c7d626f09c18deb64736f6c634300080a0033","linkReferences":{}},"methodIdentifiers":{"isModuleApproved(address,address)":"37436c98","moduleFeeToken()":"9e4a400c","moduleRegistered(address)":"fbef5f52","registerModule(address)":"ad64ae4b","registrar()":"2b20e397","setApprovalForModule(address,bool)":"152c1b5b","setApprovalForModuleBySig(address,address,bool,uint256,uint8,bytes32,bytes32)":"9dbb83a7","setBatchApprovalForModules(address[],bool)":"bcb11ad3","setRegistrar(address)":"faab9d39","sigNonces(address)":"f990ccd7","userApprovals(address,address)":"1be50153"},"id":0}